{
  "abi": [
    {
      "inputs": [
        {
          "internalType": "contract IERC20",
          "name": "purchaseToken",
          "type": "address"
        }
      ],
      "stateMutability": "nonpayable",
      "type": "constructor"
    },
    {
      "anonymous": false,
      "inputs": [
        {
          "indexed": true,
          "internalType": "address",
          "name": "creator",
          "type": "address"
        },
        {
          "indexed": true,
          "internalType": "address",
          "name": "ticketCollection",
          "type": "address"
        },
        {
          "indexed": false,
          "internalType": "string",
          "name": "eventName",
          "type": "string"
        },
        {
          "indexed": false,
          "internalType": "uint256",
          "name": "price",
          "type": "uint256"
        },
        {
          "indexed": false,
          "internalType": "uint256",
          "name": "maxNumberOfTickets",
          "type": "uint256"
        }
      ],
      "name": "EventCreated",
      "type": "event"
    },
    {
      "anonymous": false,
      "inputs": [
        {
          "indexed": true,
          "internalType": "address",
          "name": "holder",
          "type": "address"
        },
        {
          "indexed": true,
          "internalType": "address",
          "name": "ticketCollection",
          "type": "address"
        },
        {
          "indexed": false,
          "internalType": "uint256",
          "name": "ticketId",
          "type": "uint256"
        },
        {
          "indexed": false,
          "internalType": "string",
          "name": "holderName",
          "type": "string"
        }
      ],
      "name": "Purchase",
      "type": "event"
    },
    {
      "inputs": [
        {
          "internalType": "string",
          "name": "eventName",
          "type": "string"
        },
        {
          "internalType": "uint256",
          "name": "price",
          "type": "uint256"
        },
        {
          "internalType": "uint256",
          "name": "maxNumberOfTickets",
          "type": "uint256"
        }
      ],
      "name": "createNewEvent",
      "outputs": [
        {
          "internalType": "contract ITicketNFT",
          "name": "ticketCollection",
          "type": "address"
        }
      ],
      "stateMutability": "nonpayable",
      "type": "function"
    },
    {
      "inputs": [
        {
          "internalType": "address",
          "name": "ticketCollection",
          "type": "address"
        }
      ],
      "name": "getPrice",
      "outputs": [
        {
          "internalType": "uint256",
          "name": "price",
          "type": "uint256"
        }
      ],
      "stateMutability": "view",
      "type": "function"
    },
    {
      "inputs": [
        {
          "internalType": "address",
          "name": "ticketCollection",
          "type": "address"
        },
        {
          "internalType": "string",
          "name": "holderName",
          "type": "string"
        }
      ],
      "name": "purchase",
      "outputs": [
        {
          "internalType": "uint256",
          "name": "id",
          "type": "uint256"
        }
      ],
      "stateMutability": "nonpayable",
      "type": "function"
    }
  ],
  "bytecode": {
    "object": "0x608060405234801561001057600080fd5b50604051611bb4380380611bb483398101604081905261002f91610054565b600080546001600160a01b0319166001600160a01b0392909216919091179055610084565b60006020828403121561006657600080fd5b81516001600160a01b038116811461007d57600080fd5b9392505050565b611b21806100936000396000f3fe60806040523480156200001157600080fd5b5060043610620000465760003560e01c80633a1b1d57146200004b57806341976e091462000075578063a5cd54d414620000a4575b600080fd5b620000626200005c3660046200075f565b620000d4565b6040519081526020015b60405180910390f35b6200006262000086366004620007b3565b6001600160a01b031660009081526001602052604090206003015490565b620000bb620000b5366004620007d8565b62000492565b6040516001600160a01b0390911681526020016200006c565b6001600160a01b038083166000908152600160208181526040808420815160c08101835281548716815293810154909516918301919091526002840180549394859490928401919062000127906200082a565b80601f016020809104026020016040519081016040528092919081815260200182805462000155906200082a565b8015620001a65780601f106200017a57610100808354040283529160200191620001a6565b820191906000526020600020905b8154815290600101906020018083116200018857829003601f168201915b5050509183525050600382015460208201526004820154604082015260059091015460609091015280519091506001600160a01b0316620002265760405162461bcd60e51b81526020600482015260156024820152741d1a1948195d995b9d081cda1bdd5908195e1a5cdd605a1b60448201526064015b60405180910390fd5b60608101516000546040516370a0823160e01b81523360048201526001600160a01b03909116906370a0823190602401602060405180830381865afa15801562000274573d6000803e3d6000fd5b505050506040513d601f19601f820116820180604052508101906200029a919062000867565b1015620002a657600080fd5b80608001518160a0015110620002ff5760405162461bcd60e51b815260206004820152601d60248201527f6d6178206e756d626572206f66207469636b657473207265616368656400000060448201526064016200021d565b600054815160608301516040516323b872dd60e01b81523360048201526001600160a01b03928316602482015260448101919091529116906323b872dd906064016020604051808303816000875af115801562000360573d6000803e3d6000fd5b505050506040513d601f19601f8201168201806040525081019062000386919062000881565b5060405163d0def52160e01b81526000906001600160a01b0386169063d0def52190620003ba9033908890600401620008f5565b6020604051808303816000875af1158015620003da573d6000803e3d6000fd5b505050506040513d601f19601f8201168201806040525081019062000400919062000867565b90506001806000876001600160a01b03166001600160a01b0316815260200190815260200160002060050160008282546200043c919062000923565b90915550506040516001600160a01b0386169033907f919be812a285f2dcdadb642b6be908c8924fb8e7c1bb20ceb040ed312b03c813906200048290859089906200094a565b60405180910390a3949350505050565b60008033858585604051620004a790620005e3565b620004b6949392919062000965565b604051809103906000f080158015620004d3573d6000803e3d6000fd5b506040805160c0810182523381526001600160a01b0380841660208084018281528486018c8152606086018c9052608086018b9052600060a08701819052938452600180845296909320855181549086166001600160a01b031991821617825591519681018054979095169690911695909517909255518051949550919384939262000567926002850192910190620005f1565b50606082015181600301556080820151816004015560a08201518160050155905050816001600160a01b0316336001600160a01b03167f2a02a92e56497cfd27dfc15a4d0093031ad5012ce1fd1ae5107bfbc594e4cff3888888604051620005d2939291906200099e565b60405180910390a350949350505050565b61112680620009c683390190565b828054620005ff906200082a565b90600052602060002090601f0160209004810192826200062357600085556200066e565b82601f106200063e57805160ff19168380011785556200066e565b828001600101855582156200066e579182015b828111156200066e57825182559160200191906001019062000651565b506200067c92915062000680565b5090565b5b808211156200067c576000815560010162000681565b80356001600160a01b0381168114620006af57600080fd5b919050565b634e487b7160e01b600052604160045260246000fd5b600082601f830112620006dc57600080fd5b813567ffffffffffffffff80821115620006fa57620006fa620006b4565b604051601f8301601f19908116603f01168101908282118183101715620007255762000725620006b4565b816040528381528660208588010111156200073f57600080fd5b836020870160208301376000602085830101528094505050505092915050565b600080604083850312156200077357600080fd5b6200077e8362000697565b9150602083013567ffffffffffffffff8111156200079b57600080fd5b620007a985828601620006ca565b9150509250929050565b600060208284031215620007c657600080fd5b620007d18262000697565b9392505050565b600080600060608486031215620007ee57600080fd5b833567ffffffffffffffff8111156200080657600080fd5b6200081486828701620006ca565b9660208601359650604090950135949350505050565b600181811c908216806200083f57607f821691505b602082108114156200086157634e487b7160e01b600052602260045260246000fd5b50919050565b6000602082840312156200087a57600080fd5b5051919050565b6000602082840312156200089457600080fd5b81518015158114620007d157600080fd5b6000815180845260005b81811015620008cd57602081850181015186830182015201620008af565b81811115620008e0576000602083870101525b50601f01601f19169290920160200192915050565b6001600160a01b03831681526040602082018190526000906200091b90830184620008a5565b949350505050565b600082198211156200094557634e487b7160e01b600052601160045260246000fd5b500190565b8281526040602082015260006200091b6040830184620008a5565b6001600160a01b03851681526080602082018190526000906200098b90830186620008a5565b6040830194909452506060015292915050565b606081526000620009b36060830186620008a5565b6020830194909452506040015291905056fe6080604052600080553480156200001557600080fd5b506040516200112638038062001126833981016040819052620000389162000145565b600880546001600160a01b0386166001600160a01b031991821617909155600780549091163317905582516200007690600990602086019062000089565b50600a91909155600b5550620002909050565b828054620000979062000253565b90600052602060002090601f016020900481019282620000bb576000855562000106565b82601f10620000d657805160ff191683800117855562000106565b8280016001018555821562000106579182015b8281111562000106578251825591602001919060010190620000e9565b506200011492915062000118565b5090565b5b8082111562000114576000815560010162000119565b634e487b7160e01b600052604160045260246000fd5b600080600080608085870312156200015c57600080fd5b84516001600160a01b03811681146200017457600080fd5b602086810151919550906001600160401b03808211156200019457600080fd5b818801915088601f830112620001a957600080fd5b815181811115620001be57620001be6200012f565b604051601f8201601f19908116603f01168101908382118183101715620001e957620001e96200012f565b816040528281528b868487010111156200020257600080fd5b600093505b8284101562000226578484018601518185018701529285019262000207565b82841115620002385760008684830101525b60408b01516060909b0151999c909b50975050505050505050565b600181811c908216806200026857607f821691505b602082108114156200028a57634e487b7160e01b600052602260045260246000fd5b50919050565b610e8680620002a06000396000f3fe608060405234801561001057600080fd5b50600436106100cf5760003560e01c806370a082311161008c5780638543016c116100665780638543016c146101ce578063d0def521146101e1578063dbacc237146101f4578063fdf8a44e1461020757600080fd5b806370a082311461017c5780637b615c4b146101b35780638043c9c0146101c657600080fd5b806302d05d3f146100d4578063081812fc146100fe578063095ea7b3146101115780631ac0d8ac1461012657806323b872dd14610149578063600580d51461015c575b600080fd5b6008546001600160a01b03165b6040516001600160a01b0390911681526020015b60405180910390f35b6100e161010c366004610b23565b61020f565b61012461011f366004610b58565b61024c565b005b610139610134366004610b23565b610377565b60405190151581526020016100f5565b610124610157366004610b82565b6103d7565b61016f61016a366004610b23565b610546565b6040516100f59190610bbe565b6101a561018a366004610c13565b6001600160a01b031660009081526004602052604090205490565b6040519081526020016100f5565b6101246101c1366004610c35565b610608565b61016f61066c565b6101246101dc366004610b23565b6106fe565b6101a56101ef366004610cc7565b61078c565b6100e1610202366004610b23565b61088f565b600b546101a5565b6000818152600160205260408120546001600160a01b031661023057600080fd5b506000908152600560205260409020546001600160a01b031690565b6000818152600160205260409020546001600160a01b03166102ac5760405162461bcd60e51b81526020600482015260146024820152731d1a19481d1a58dad95d081b9bdd08195e1a5cdd60621b60448201526064015b60405180910390fd5b6000818152600160205260409020546001600160a01b0316331461031e5760405162461bcd60e51b815260206004820152602360248201527f6f6e6c79207469636b657420686f6c6465722063616e2063616c6c20617070726044820152626f766560e81b60648201526084016102a3565b60008181526005602052604080822080546001600160a01b0319166001600160a01b0386169081179091559051839233917f8c5be1e5ebec7d5bd14f71427d1e84f3dd0314c0f7b2291e5b200ac8c7c3b9259190a45050565b6000818152600160205260408120546001600160a01b031661039857600080fd5b6000828152600360205260409020544211806103c2575060008281526006602052604090205460ff165b156103cf57506001919050565b506000919050565b6001600160a01b038316158015906103f757506001600160a01b03821615155b61040057600080fd5b6000818152600160205260409020546001600160a01b0384811691161461042657600080fd5b6000818152600560205260409020546001600160a01b031633148061046157506000818152600160205260409020546001600160a01b031633145b61046a57600080fd5b600081815260056020908152604080832080546001600160a01b0319908116909155600190925290912080549091166001600160a01b0384161790556104b083826108cc565b6001600160a01b03808316600081815260046020908152604080832080546001810182559084529183209091018590555184938716917fddf252ad1be2c89b69c2b068fc378daa952ba7f163c4a11628f55a4df523b3ef91a460405181906000906001600160a01b038616907f8c5be1e5ebec7d5bd14f71427d1e84f3dd0314c0f7b2291e5b200ac8c7c3b925908390a4505050565b6000818152600160205260409020546060906001600160a01b031661056a57600080fd5b6000828152600260205260409020805461058390610d89565b80601f01602080910402602001604051908101604052809291908181526020018280546105af90610d89565b80156105fc5780601f106105d1576101008083540402835291602001916105fc565b820191906000526020600020905b8154815290600101906020018083116105df57829003601f168201915b50505050509050919050565b6000838152600160205260409020546001600160a01b03161580159061064457506000838152600160205260409020546001600160a01b031633145b61064d57600080fd5b6000838152600260205260409020610666908383610a16565b50505050565b60606009805461067b90610d89565b80601f01602080910402602001604051908101604052809291908181526020018280546106a790610d89565b80156106f45780601f106106c9576101008083540402835291602001916106f4565b820191906000526020600020905b8154815290600101906020018083116106d757829003601f168201915b5050505050905090565b6000818152600160205260409020546001600160a01b031661071f57600080fd5b60008181526006602052604090205460ff1615156001141561074057600080fd5b600081815260036020526040902054421061075a57600080fd5b6008546001600160a01b0316331461077157600080fd5b6000908152600660205260409020805460ff19166001179055565b6007546000906001600160a01b031633146107a657600080fd5b6000805490600190806107b98385610dda565b90915550600090506107ce42620d2f00610dda565b600083815260016020908152604080832080546001600160a01b0319166001600160a01b038b16179055600282529091208651929350610812929091870190610a9a565b50600082815260036020908152604080832084905560068252808320805460ff191690556001600160a01b038816808452600483528184208054600181018255908552928420909201859055518492907fddf252ad1be2c89b69c2b068fc378daa952ba7f163c4a11628f55a4df523b3ef908290a4509392505050565b6000818152600160205260408120546001600160a01b03166108b057600080fd5b506000908152600160205260409020546001600160a01b031690565b60005b6001600160a01b0383166000908152600460205260409020546108f490600190610df2565b8111610a11576001600160a01b038316600090815260046020526040902080548391908390811061092757610927610e09565b906000526020600020015414156109ff576001600160a01b0383166000908152600460205260409020805461095e90600190610df2565b8154811061096e5761096e610e09565b906000526020600020015460046000856001600160a01b03166001600160a01b0316815260200190815260200160002082815481106109af576109af610e09565b60009182526020808320909101929092556001600160a01b03851681526004909152604090208054806109e4576109e4610e1f565b60019003818190600052602060002001600090559055505050565b80610a0981610e35565b9150506108cf565b505050565b828054610a2290610d89565b90600052602060002090601f016020900481019282610a445760008555610a8a565b82601f10610a5d5782800160ff19823516178555610a8a565b82800160010185558215610a8a579182015b82811115610a8a578235825591602001919060010190610a6f565b50610a96929150610b0e565b5090565b828054610aa690610d89565b90600052602060002090601f016020900481019282610ac85760008555610a8a565b82601f10610ae157805160ff1916838001178555610a8a565b82800160010185558215610a8a579182015b82811115610a8a578251825591602001919060010190610af3565b5b80821115610a965760008155600101610b0f565b600060208284031215610b3557600080fd5b5035919050565b80356001600160a01b0381168114610b5357600080fd5b919050565b60008060408385031215610b6b57600080fd5b610b7483610b3c565b946020939093013593505050565b600080600060608486031215610b9757600080fd5b610ba084610b3c565b9250610bae60208501610b3c565b9150604084013590509250925092565b600060208083528351808285015260005b81811015610beb57858101830151858201604001528201610bcf565b81811115610bfd576000604083870101525b50601f01601f1916929092016040019392505050565b600060208284031215610c2557600080fd5b610c2e82610b3c565b9392505050565b600080600060408486031215610c4a57600080fd5b83359250602084013567ffffffffffffffff80821115610c6957600080fd5b818601915086601f830112610c7d57600080fd5b813581811115610c8c57600080fd5b876020828501011115610c9e57600080fd5b6020830194508093505050509250925092565b634e487b7160e01b600052604160045260246000fd5b60008060408385031215610cda57600080fd5b610ce383610b3c565b9150602083013567ffffffffffffffff80821115610d0057600080fd5b818501915085601f830112610d1457600080fd5b813581811115610d2657610d26610cb1565b604051601f8201601f19908116603f01168101908382118183101715610d4e57610d4e610cb1565b81604052828152886020848701011115610d6757600080fd5b8260208601602083013760006020848301015280955050505050509250929050565b600181811c90821680610d9d57607f821691505b60208210811415610dbe57634e487b7160e01b600052602260045260246000fd5b50919050565b634e487b7160e01b600052601160045260246000fd5b60008219821115610ded57610ded610dc4565b500190565b600082821015610e0457610e04610dc4565b500390565b634e487b7160e01b600052603260045260246000fd5b634e487b7160e01b600052603160045260246000fd5b6000600019821415610e4957610e49610dc4565b506001019056fea26469706673582212203507e127f69b1637022a22ef9b9d92eac246b6541ec2a4273b19bac13cf5a8de64736f6c634300080a0033a2646970667358221220a998d8bf5f32d8db9363569ecb9319f9a1f1485461104c745cf3b0479bbaefb164736f6c634300080a0033",
    "linkReferences": {}
  },
  "methodIdentifiers": {
    "createNewEvent(string,uint256,uint256)": "a5cd54d4",
    "getPrice(address)": "41976e09",
    "purchase(address,string)": "3a1b1d57"
  },
  "id": 15
}