{
  "abi": [
    {
      "inputs": [
        {
          "internalType": "contract IERC20",
          "name": "purchaseToken",
          "type": "address"
        }
      ],
      "stateMutability": "nonpayable",
      "type": "constructor"
    },
    {
      "anonymous": false,
      "inputs": [
        {
          "indexed": true,
          "internalType": "address",
          "name": "bidder",
          "type": "address"
        },
        {
          "indexed": true,
          "internalType": "address",
          "name": "ticketCollection",
          "type": "address"
        },
        {
          "indexed": true,
          "internalType": "uint256",
          "name": "ticketID",
          "type": "uint256"
        },
        {
          "indexed": false,
          "internalType": "uint256",
          "name": "bidAmount",
          "type": "uint256"
        },
        {
          "indexed": false,
          "internalType": "string",
          "name": "newName",
          "type": "string"
        }
      ],
      "name": "BidAccepted",
      "type": "event"
    },
    {
      "anonymous": false,
      "inputs": [
        {
          "indexed": true,
          "internalType": "address",
          "name": "bidder",
          "type": "address"
        },
        {
          "indexed": true,
          "internalType": "address",
          "name": "ticketCollection",
          "type": "address"
        },
        {
          "indexed": true,
          "internalType": "uint256",
          "name": "ticketID",
          "type": "uint256"
        },
        {
          "indexed": false,
          "internalType": "uint256",
          "name": "bidAmount",
          "type": "uint256"
        },
        {
          "indexed": false,
          "internalType": "string",
          "name": "newName",
          "type": "string"
        }
      ],
      "name": "BidSubmitted",
      "type": "event"
    },
    {
      "anonymous": false,
      "inputs": [
        {
          "indexed": true,
          "internalType": "address",
          "name": "ticketCollection",
          "type": "address"
        },
        {
          "indexed": true,
          "internalType": "uint256",
          "name": "ticketID",
          "type": "uint256"
        }
      ],
      "name": "Delisting",
      "type": "event"
    },
    {
      "anonymous": false,
      "inputs": [
        {
          "indexed": true,
          "internalType": "address",
          "name": "holder",
          "type": "address"
        },
        {
          "indexed": true,
          "internalType": "address",
          "name": "ticketCollection",
          "type": "address"
        },
        {
          "indexed": true,
          "internalType": "uint256",
          "name": "ticketID",
          "type": "uint256"
        },
        {
          "indexed": false,
          "internalType": "uint256",
          "name": "price",
          "type": "uint256"
        }
      ],
      "name": "Listing",
      "type": "event"
    },
    {
      "inputs": [
        {
          "internalType": "address",
          "name": "ticketCollection",
          "type": "address"
        },
        {
          "internalType": "uint256",
          "name": "ticketID",
          "type": "uint256"
        }
      ],
      "name": "acceptBid",
      "outputs": [],
      "stateMutability": "nonpayable",
      "type": "function"
    },
    {
      "inputs": [
        {
          "internalType": "address",
          "name": "ticketCollection",
          "type": "address"
        },
        {
          "internalType": "uint256",
          "name": "ticketID",
          "type": "uint256"
        }
      ],
      "name": "delistTicket",
      "outputs": [],
      "stateMutability": "nonpayable",
      "type": "function"
    },
    {
      "inputs": [
        {
          "internalType": "address",
          "name": "ticketCollection",
          "type": "address"
        },
        {
          "internalType": "uint256",
          "name": "ticketId",
          "type": "uint256"
        }
      ],
      "name": "getHighestBid",
      "outputs": [
        {
          "internalType": "uint256",
          "name": "",
          "type": "uint256"
        }
      ],
      "stateMutability": "view",
      "type": "function"
    },
    {
      "inputs": [
        {
          "internalType": "address",
          "name": "ticketCollection",
          "type": "address"
        },
        {
          "internalType": "uint256",
          "name": "ticketId",
          "type": "uint256"
        }
      ],
      "name": "getHighestBidder",
      "outputs": [
        {
          "internalType": "address",
          "name": "",
          "type": "address"
        }
      ],
      "stateMutability": "view",
      "type": "function"
    },
    {
      "inputs": [
        {
          "internalType": "address",
          "name": "ticketCollection",
          "type": "address"
        },
        {
          "internalType": "uint256",
          "name": "ticketID",
          "type": "uint256"
        },
        {
          "internalType": "uint256",
          "name": "price",
          "type": "uint256"
        }
      ],
      "name": "listTicket",
      "outputs": [],
      "stateMutability": "nonpayable",
      "type": "function"
    },
    {
      "inputs": [
        {
          "internalType": "address",
          "name": "ticketCollection",
          "type": "address"
        },
        {
          "internalType": "uint256",
          "name": "ticketID",
          "type": "uint256"
        },
        {
          "internalType": "uint256",
          "name": "bidAmount",
          "type": "uint256"
        },
        {
          "internalType": "string",
          "name": "name",
          "type": "string"
        }
      ],
      "name": "submitBid",
      "outputs": [],
      "stateMutability": "nonpayable",
      "type": "function"
    },
    {
      "inputs": [
        {
          "internalType": "address",
          "name": "",
          "type": "address"
        },
        {
          "internalType": "uint256",
          "name": "",
          "type": "uint256"
        }
      ],
      "name": "ticketBidList",
      "outputs": [
        {
          "internalType": "address",
          "name": "sender",
          "type": "address"
        },
        {
          "internalType": "string",
          "name": "name",
          "type": "string"
        },
        {
          "internalType": "uint256",
          "name": "price",
          "type": "uint256"
        }
      ],
      "stateMutability": "view",
      "type": "function"
    },
    {
      "inputs": [
        {
          "internalType": "address",
          "name": "",
          "type": "address"
        },
        {
          "internalType": "uint256",
          "name": "",
          "type": "uint256"
        }
      ],
      "name": "ticketList",
      "outputs": [
        {
          "internalType": "address",
          "name": "owner",
          "type": "address"
        },
        {
          "internalType": "uint256",
          "name": "price",
          "type": "uint256"
        },
        {
          "internalType": "bool",
          "name": "active",
          "type": "bool"
        }
      ],
      "stateMutability": "view",
      "type": "function"
    }
  ],
  "bytecode": {
    "object": "0x608060405234801561001057600080fd5b5060405161176038038061176083398101604081905261002f91610054565b600080546001600160a01b0319166001600160a01b0392909216919091179055610084565b60006020828403121561006657600080fd5b81516001600160a01b038116811461007d57600080fd5b9392505050565b6116cd806100936000396000f3fe608060405234801561001057600080fd5b50600436106100885760003560e01c80638226508d1161005b5780638226508d14610148578063955a5a7614610169578063a670a9b41461017c578063f489b89a146101ca57600080fd5b80631d66b15c1461008d578063694ec414146100a25780636aeb4e6e14610113578063793bba6c14610135575b600080fd5b6100a061009b36600461139c565b6101dd565b005b6100e76100b03660046113d1565b600160208181526000938452604080852090915291835291208054918101546002909101546001600160a01b039092169160ff1683565b604080516001600160a01b03909416845260208401929092521515908201526060015b60405180910390f35b6101266101213660046113d1565b6103dd565b60405161010a9392919061144a565b6100a061014336600461147e565b61049d565b61015b6101563660046113d1565b6108e4565b60405190815260200161010a565b6100a06101773660046113d1565b610a76565b6101b261018a3660046113d1565b6001600160a01b03918216600090815260026020908152604080832093835292905220541690565b6040516001600160a01b03909116815260200161010a565b6100a06101d83660046113d1565b610fcd565b60405163dbacc23760e01b815260048101839052839033906001600160a01b0383169063dbacc23790602401602060405180830381865afa158015610226573d6000803e3d6000fd5b505050506040513d601f19601f8201168201806040525081019061024a9190611514565b6001600160a01b03161480156102c657506040516306b0362b60e21b8152600481018490526001600160a01b03821690631ac0d8ac90602401602060405180830381865afa1580156102a0573d6000803e3d6000fd5b505050506040513d601f19601f820116820180604052508101906102c49190611538565b155b6102cf57600080fd5b6040516323b872dd60e01b81526001600160a01b038216906323b872dd906102ff9033903090889060040161155a565b600060405180830381600087803b15801561031957600080fd5b505af115801561032d573d6000803e3d6000fd5b50506040805160608101825233808252602080830188815260018486018181526001600160a01b038d811660008181528487528981208f82528752899020975188546001600160a01b0319169216919091178755925191860191909155516002909401805460ff1916941515949094179093559251878152889550919350917f84d2359781d0cae07f76a233e689a83b58360925f9177ebc367b5233511aab93910160405180910390a450505050565b6002602090815260009283526040808420909152908252902080546001820180546001600160a01b0390921692916104149061157e565b80601f01602080910402602001604051908101604052809291908181526020018280546104409061157e565b801561048d5780601f106104625761010080835404028352916020019161048d565b820191906000526020600020905b81548152906001019060200180831161047057829003601f168201915b5050505050908060020154905083565b6001600160a01b0385811660008181526001602081815260408084208a855282529283902083516060810185528154909616865291820154908501526002015460ff16151583820152516306b0362b60e21b815260048101879052879190631ac0d8ac90602401602060405180830381865afa158015610521573d6000803e3d6000fd5b505050506040513d601f19601f820116820180604052508101906105459190611538565b1561054f57600080fd5b816040015161055d57600080fd5b816020015185101561056e57600080fd5b6000546040516370a0823160e01b815233600482015286916001600160a01b0316906370a0823190602401602060405180830381865afa1580156105b6573d6000803e3d6000fd5b505050506040513d601f19601f820116820180604052508101906105da91906115b9565b10156105e557600080fd5b6001600160a01b0380881660009081526002602090815260408083208a84528252808320815160608101909252805490941681526001840180549394919391928401916106319061157e565b80601f016020809104026020016040519081016040528092919081815260200182805461065d9061157e565b80156106aa5780601f1061067f576101008083540402835291602001916106aa565b820191906000526020600020905b81548152906001019060200180831161068d57829003601f168201915b50505091835250506002919091015460209091015280519091506001600160a01b03161561075c57806040015186116106e257600080fd5b600054815160405163a9059cbb60e01b81526001600160a01b0391821660048201526024810189905291169063a9059cbb906044016020604051808303816000875af1158015610736573d6000803e3d6000fd5b505050506040513d601f19601f8201168201806040525081019061075a9190611538565b505b6000546040516323b872dd60e01b81526001600160a01b03909116906323b872dd9061079090339030908b9060040161155a565b6020604051808303816000875af11580156107af573d6000803e3d6000fd5b505050506040513d601f19601f820116820180604052508101906107d39190611538565b506040518060600160405280336001600160a01b0316815260200186868080601f016020809104026020016040519081016040528093929190818152602001838380828437600092018290525093855250505060209182018990526001600160a01b038b811682526002835260408083208c84528452909120835181546001600160a01b0319169216919091178155828201518051919261087c926001850192909101906112b1565b506040820151816002015590505086886001600160a01b0316336001600160a01b03167f85f2e66743c0791ddd157dc7ab9a9649a6839e2d79276c17187da6c0a3a860cd8989896040516108d2939291906115d2565b60405180910390a45050505050505050565b6001600160a01b038083166000908152600260209081526040808320858452825280832081516060810190925280549094168152600184018054939485949293909290840191906109349061157e565b80601f01602080910402602001604051908101604052809291908181526020018280546109609061157e565b80156109ad5780601f10610982576101008083540402835291602001916109ad565b820191906000526020600020905b81548152906001019060200180831161099057829003601f168201915b50505091835250506002918201546020918201526001600160a01b038088166000908152600180845260408083208a8452855291829020825160608101845281549094168452908101549383018490529093015460ff1615158184015291830151929350909110610a46575050506001600160a01b03821660009081526002602081815260408084208585529091529091200154610a70565b5050506001600160a01b038216600090815260016020818152604080842085855290915290912001545b92915050565b6001600160a01b038216600090815260016020908152604080832084845290915290206002015460ff168015610ad057506001600160a01b0382811660009081526002602090815260408083208584529091529020541615155b8015610b0057506001600160a01b0382811660009081526001602090815260408083208584529091529020541633145b610b0957600080fd5b6001600160a01b0380831660008181526001602081815260408084208785528252808420815160608082018452825489168252828601548286015260029283015460ff161515828501529686529083528185208886528352818520825196870190925281549096168552918201805493949391840191610b889061157e565b80601f0160208091040260200160405190810160405280929190818152602001828054610bb49061157e565b8015610c015780601f10610bd657610100808354040283529160200191610c01565b820191906000526020600020905b815481529060010190602001808311610be457829003601f168201915b5050509183525050600291909101546020909101526040516306b0362b60e21b81526004810185905290915084906001600160a01b03821690631ac0d8ac90602401602060405180830381865afa158015610c60573d6000803e3d6000fd5b505050506040513d601f19601f82011682018060405250810190610c849190611538565b15610c8e57600080fd5b6020820151604051637b615c4b60e01b81526001600160a01b03831691637b615c4b91610cbf918891600401611608565b600060405180830381600087803b158015610cd957600080fd5b505af1158015610ced573d6000803e3d6000fd5b505083516040516323b872dd60e01b81526001600160a01b03851693506323b872dd9250610d21913091899060040161155a565b600060405180830381600087803b158015610d3b57600080fd5b505af1158015610d4f573d6000803e3d6000fd5b50505050600060648360400151605f610d68919061163f565b610d72919061165e565b90506000818460400151610d869190611680565b905060008054906101000a90046001600160a01b03166001600160a01b031663a9059cbb846001600160a01b03166302d05d3f6040518163ffffffff1660e01b8152600401602060405180830381865afa158015610de8573d6000803e3d6000fd5b505050506040513d601f19601f82011682018060405250810190610e0c9190611514565b6040516001600160e01b031960e084901b1681526001600160a01b039091166004820152602481018490526044016020604051808303816000875af1158015610e59573d6000803e3d6000fd5b505050506040513d601f19601f82011682018060405250810190610e7d9190611538565b50600054855160405163a9059cbb60e01b81526001600160a01b0391821660048201526024810185905291169063a9059cbb906044016020604051808303816000875af1158015610ed2573d6000803e3d6000fd5b505050506040513d601f19601f82011682018060405250810190610ef69190611538565b506001600160a01b03871660008181526001602081815260408084208b8552825280842080546001600160a01b031990811682558185018690556002918201805460ff1916905595855282528084208b8552909152822080549093168355610f6090830182611335565b6002820160009055505085876001600160a01b031685600001516001600160a01b03167fe617cb81f1ecf15453e5ac151d07668051d9faa4f959e6d2dffa2f4327a1554587604001518860200151604051610fbc929190611608565b60405180910390a450505050505050565b6001600160a01b038216600090815260016020908152604080832084845290915290206002015460ff16801561102757506001600160a01b0382811660009081526001602090815260408083208584529091529020541633145b61103057600080fd5b6040516323b872dd60e01b815282906001600160a01b038216906323b872dd906110629030903390879060040161155a565b600060405180830381600087803b15801561107c57600080fd5b505af1158015611090573d6000803e3d6000fd5b5050506001600160a01b038085166000908152600260209081526040808320878452825280832081516060810190925280549094168152600184018054939550909392918401916110e09061157e565b80601f016020809104026020016040519081016040528092919081815260200182805461110c9061157e565b80156111595780601f1061112e57610100808354040283529160200191611159565b820191906000526020600020905b81548152906001019060200180831161113c57829003601f168201915b50505091835250506002919091015460209091015280519091506001600160a01b031615611201576000548151604080840151905163a9059cbb60e01b81526001600160a01b039283166004820152602481019190915291169063a9059cbb906044016020604051808303816000875af11580156111db573d6000803e3d6000fd5b505050506040513d601f19601f820116820180604052508101906111ff9190611538565b505b6001600160a01b0384166000818152600160208181526040808420888552825280842080546001600160a01b031990811682558185018690556002918201805460ff19169055958552825280842088855290915282208054909316835561126a90830182611335565b6002820160009055505082846001600160a01b03167f9c74d776e5765f64303c82b9dceb594cdf4d4e054e6530a839715a276532e0ab60405160405180910390a350505050565b8280546112bd9061157e565b90600052602060002090601f0160209004810192826112df5760008555611325565b82601f106112f857805160ff1916838001178555611325565b82800160010185558215611325579182015b8281111561132557825182559160200191906001019061130a565b50611331929150611372565b5090565b5080546113419061157e565b6000825580601f10611351575050565b601f01602090049060005260206000209081019061136f9190611372565b50565b5b808211156113315760008155600101611373565b6001600160a01b038116811461136f57600080fd5b6000806000606084860312156113b157600080fd5b83356113bc81611387565b95602085013595506040909401359392505050565b600080604083850312156113e457600080fd5b82356113ef81611387565b946020939093013593505050565b6000815180845260005b8181101561142357602081850181015186830182015201611407565b81811115611435576000602083870101525b50601f01601f19169290920160200192915050565b6001600160a01b038416815260606020820181905260009061146e908301856113fd565b9050826040830152949350505050565b60008060008060006080868803121561149657600080fd5b85356114a181611387565b94506020860135935060408601359250606086013567ffffffffffffffff808211156114cc57600080fd5b818801915088601f8301126114e057600080fd5b8135818111156114ef57600080fd5b89602082850101111561150157600080fd5b9699959850939650602001949392505050565b60006020828403121561152657600080fd5b815161153181611387565b9392505050565b60006020828403121561154a57600080fd5b8151801515811461153157600080fd5b6001600160a01b039384168152919092166020820152604081019190915260600190565b600181811c9082168061159257607f821691505b602082108114156115b357634e487b7160e01b600052602260045260246000fd5b50919050565b6000602082840312156115cb57600080fd5b5051919050565b83815260406020820152816040820152818360608301376000818301606090810191909152601f909201601f1916010192915050565b82815260406020820152600061162160408301846113fd565b949350505050565b634e487b7160e01b600052601160045260246000fd5b600081600019048311821515161561165957611659611629565b500290565b60008261167b57634e487b7160e01b600052601260045260246000fd5b500490565b60008282101561169257611692611629565b50039056fea26469706673582212208443d42294aa57cc7ee7be51965bcc4759abcbd7d41d07fd09c7527bd67684c864736f6c634300080a0033",
    "linkReferences": {}
  },
  "methodIdentifiers": {
    "acceptBid(address,uint256)": "955a5a76",
    "delistTicket(address,uint256)": "f489b89a",
    "getHighestBid(address,uint256)": "8226508d",
    "getHighestBidder(address,uint256)": "a670a9b4",
    "listTicket(address,uint256,uint256)": "1d66b15c",
    "submitBid(address,uint256,uint256,string)": "793bba6c",
    "ticketBidList(address,uint256)": "6aeb4e6e",
    "ticketList(address,uint256)": "694ec414"
  },
  "id": 17
}