{
    "contractName": "PrimaryMarket",
    "abi": [
        {
            "inputs": [
                {
                    "internalType": "contract IERC20",
                    "name": "purchaseToken",
                    "type": "address"
                }
            ],
            "stateMutability": "nonpayable",
            "type": "constructor"
        },
        {
            "anonymous": false,
            "inputs": [
                {
                    "indexed": true,
                    "internalType": "address",
                    "name": "creator",
                    "type": "address"
                },
                {
                    "indexed": true,
                    "internalType": "address",
                    "name": "ticketCollection",
                    "type": "address"
                },
                {
                    "indexed": false,
                    "internalType": "string",
                    "name": "eventName",
                    "type": "string"
                },
                {
                    "indexed": false,
                    "internalType": "uint256",
                    "name": "price",
                    "type": "uint256"
                },
                {
                    "indexed": false,
                    "internalType": "uint256",
                    "name": "maxNumberOfTickets",
                    "type": "uint256"
                }
            ],
            "name": "EventCreated",
            "type": "event"
        },
        {
            "anonymous": false,
            "inputs": [
                {
                    "indexed": true,
                    "internalType": "address",
                    "name": "holder",
                    "type": "address"
                },
                {
                    "indexed": true,
                    "internalType": "address",
                    "name": "ticketCollection",
                    "type": "address"
                },
                {
                    "indexed": false,
                    "internalType": "uint256",
                    "name": "ticketId",
                    "type": "uint256"
                },
                {
                    "indexed": false,
                    "internalType": "string",
                    "name": "holderName",
                    "type": "string"
                }
            ],
            "name": "Purchase",
            "type": "event"
        },
        {
            "inputs": [
                {
                    "internalType": "string",
                    "name": "eventName",
                    "type": "string"
                },
                {
                    "internalType": "uint256",
                    "name": "price",
                    "type": "uint256"
                },
                {
                    "internalType": "uint256",
                    "name": "maxNumberOfTickets",
                    "type": "uint256"
                }
            ],
            "name": "createNewEvent",
            "outputs": [
                {
                    "internalType": "contract ITicketNFT",
                    "name": "ticketCollection",
                    "type": "address"
                }
            ],
            "stateMutability": "nonpayable",
            "type": "function"
        },
        {
            "inputs": [
                {
                    "internalType": "address",
                    "name": "ticketCollection",
                    "type": "address"
                }
            ],
            "name": "getPrice",
            "outputs": [
                {
                    "internalType": "uint256",
                    "name": "price",
                    "type": "uint256"
                }
            ],
            "stateMutability": "view",
            "type": "function"
        },
        {
            "inputs": [
                {
                    "internalType": "address",
                    "name": "ticketCollection",
                    "type": "address"
                },
                {
                    "internalType": "string",
                    "name": "holderName",
                    "type": "string"
                }
            ],
            "name": "purchase",
            "outputs": [
                {
                    "internalType": "uint256",
                    "name": "id",
                    "type": "uint256"
                }
            ],
            "stateMutability": "nonpayable",
            "type": "function"
        }
    ],
    "bytecode": "608060405234801561001057600080fd5b50604051611b0e380380611b0e83398101604081905261002f91610054565b600080546001600160a01b0319166001600160a01b0392909216919091179055610084565b60006020828403121561006657600080fd5b81516001600160a01b038116811461007d57600080fd5b9392505050565b611a7b806100936000396000f3fe60806040523480156200001157600080fd5b5060043610620000465760003560e01c80633a1b1d57146200004b57806341976e091462000075578063a5cd54d414620000a4575b600080fd5b620000626200005c366004620005b8565b620000d4565b6040519081526020015b60405180910390f35b62000062620000863660046200060c565b6001600160a01b031660009081526001602052604090206003015490565b620000bb620000b536600462000631565b62000399565b6040516001600160a01b0390911681526020016200006c565b6001600160a01b038083166000908152600160208181526040808420815160c081018352815487168152938101549095169183019190915260028401805493948594909284019190620001279062000683565b80601f0160208091040260200160405190810160405280929190818152602001828054620001559062000683565b8015620001a65780601f106200017a57610100808354040283529160200191620001a6565b820191906000526020600020905b8154815290600101906020018083116200018857829003601f168201915b5050509183525050600382015460208201526004820154604082015260059091015460609091015280519091506001600160a01b0316620001e657600080fd5b600054815160608301516040516323b872dd60e01b81523360048201526001600160a01b03928316602482015260448101919091529116906323b872dd906064016020604051808303816000875af115801562000247573d6000803e3d6000fd5b505050506040513d601f19601f820116820180604052508101906200026d9190620006bf565b801562000282575080608001518160a0015111155b6200028c57600080fd5b60405163d0def52160e01b81526000906001600160a01b0386169063d0def52190620002bf90339088906004016200072b565b6020604051808303816000875af1158015620002df573d6000803e3d6000fd5b505050506040513d601f19601f8201168201806040525081019062000305919062000759565b90506001806000876001600160a01b03166001600160a01b03168152602001908152602001600020600501600082825462000341919062000773565b90915550506040516001600160a01b0386169033907f919be812a285f2dcdadb642b6be908c8924fb8e7c1bb20ceb040ed312b03c8139062000387908590899062000795565b60405180910390a39150505b92915050565b600080848484604051620003ad90620004e2565b620003bb93929190620007b0565b604051809103906000f080158015620003d8573d6000803e3d6000fd5b506040805160c0810182523381526001600160a01b0380841660208084018281528486018c8152606086018c9052608086018b9052600060a0870181905293845260019283905295909220845181549085166001600160a01b03199182161782559251918101805492909416919092161790915591519293509182919060028201906200046690826200082a565b50606082015181600301556080820151816004015560a08201518160050155905050816001600160a01b0316336001600160a01b03167f2a02a92e56497cfd27dfc15a4d0093031ad5012ce1fd1ae5107bfbc594e4cff3888888604051620004d193929190620007b0565b60405180910390a350949350505050565b61114e80620008f883390190565b80356001600160a01b03811681146200050857600080fd5b919050565b634e487b7160e01b600052604160045260246000fd5b600082601f8301126200053557600080fd5b813567ffffffffffffffff808211156200055357620005536200050d565b604051601f8301601f19908116603f011681019082821181831017156200057e576200057e6200050d565b816040528381528660208588010111156200059857600080fd5b836020870160208301376000602085830101528094505050505092915050565b60008060408385031215620005cc57600080fd5b620005d783620004f0565b9150602083013567ffffffffffffffff811115620005f457600080fd5b620006028582860162000523565b9150509250929050565b6000602082840312156200061f57600080fd5b6200062a82620004f0565b9392505050565b6000806000606084860312156200064757600080fd5b833567ffffffffffffffff8111156200065f57600080fd5b6200066d8682870162000523565b9660208601359650604090950135949350505050565b600181811c908216806200069857607f821691505b602082108103620006b957634e487b7160e01b600052602260045260246000fd5b50919050565b600060208284031215620006d257600080fd5b815180151581146200062a57600080fd5b6000815180845260005b818110156200070b57602081850181015186830182015201620006ed565b506000602082860101526020601f19601f83011685010191505092915050565b6001600160a01b03831681526040602082018190526000906200075190830184620006e3565b949350505050565b6000602082840312156200076c57600080fd5b5051919050565b808201808211156200039357634e487b7160e01b600052601160045260246000fd5b828152604060208201526000620007516040830184620006e3565b606081526000620007c56060830186620006e3565b60208301949094525060400152919050565b601f8211156200082557600081815260208120601f850160051c81016020861015620008005750805b601f850160051c820191505b8181101562000821578281556001016200080c565b5050505b505050565b815167ffffffffffffffff8111156200084757620008476200050d565b6200085f8162000858845462000683565b84620007d7565b602080601f8311600181146200089757600084156200087e5750858301515b600019600386901b1c1916600185901b17855562000821565b600085815260208120601f198616915b82811015620008c857888601518255948401946001909101908401620008a7565b5085821015620008e75787850151600019600388901b60f8161c191681555b5050505050600190811b0190555056fe6080604052600080553480156200001557600080fd5b506040516200114e3803806200114e83398101604081905262000038916200007f565b600880546001600160a01b031916331790556009620000588482620001f5565b50600a91909155600b5550620002c1565b634e487b7160e01b600052604160045260246000fd5b6000806000606084860312156200009557600080fd5b83516001600160401b0380821115620000ad57600080fd5b818601915086601f830112620000c257600080fd5b815181811115620000d757620000d762000069565b604051601f8201601f19908116603f0116810190838211818310171562000102576200010262000069565b816040528281526020935089848487010111156200011f57600080fd5b600091505b8282101562000143578482018401518183018501529083019062000124565b600092810184019290925250908601516040909601519097959650949350505050565b600181811c908216806200017b57607f821691505b6020821081036200019c57634e487b7160e01b600052602260045260246000fd5b50919050565b601f821115620001f057600081815260208120601f850160051c81016020861015620001cb5750805b601f850160051c820191505b81811015620001ec57828155600101620001d7565b5050505b505050565b81516001600160401b0381111562000211576200021162000069565b620002298162000222845462000166565b84620001a2565b602080601f831160018114620002615760008415620002485750858301515b600019600386901b1c1916600185901b178555620001ec565b600085815260208120601f198616915b82811015620002925788860151825594840194600190910190840162000271565b5085821015620002b15787850151600019600388901b60f8161c191681555b5050505050600190811b01905550565b610e7d80620002d16000396000f3fe608060405234801561001057600080fd5b50600436106100cf5760003560e01c806370a082311161008c5780638543016c116100665780638543016c146101e4578063d0def521146101f7578063dbacc2371461020a578063fdf8a44e1461021d57600080fd5b806370a08231146101925780637b615c4b146101c95780638043c9c0146101dc57600080fd5b806302d05d3f146100d4578063081812fc146100fe578063095ea7b3146101275780631ac0d8ac1461013c57806323b872dd1461015f578063600580d514610172575b600080fd5b6008546001600160a01b03165b6040516001600160a01b0390911681526020015b60405180910390f35b6100e161010c36600461095e565b6000908152600660205260409020546001600160a01b031690565b61013a610135366004610993565b610225565b005b61014f61014a36600461095e565b6102c3565b60405190151581526020016100f5565b61013a61016d3660046109bd565b610323565b61018561018036600461095e565b61046a565b6040516100f591906109f9565b6101bb6101a0366004610a47565b6001600160a01b031660009081526005602052604090205490565b6040519081526020016100f5565b61013a6101d7366004610a69565b61052c565b610185610590565b61013a6101f236600461095e565b610622565b6101bb610205366004610afb565b610699565b6100e161021836600461095e565b6107d8565b600b546101bb565b6000818152600160205260409020546001600160a01b03161580159061026157506000818152600160205260409020546001600160a01b031633145b61026a57600080fd5b60008181526006602052604080822080546001600160a01b0319166001600160a01b0386169081179091559051839233917f8c5be1e5ebec7d5bd14f71427d1e84f3dd0314c0f7b2291e5b200ac8c7c3b9259190a45050565b6000818152600160205260408120546001600160a01b03166102e457600080fd5b60008281526004602052604090205442118061030e575060008281526007602052604090205460ff165b1561031b57506001919050565b506000919050565b6001600160a01b0383161580159061034357506001600160a01b03821615155b801561038557506000818152600660205260409020546001600160a01b031633148061038557506000818152600160205260409020546001600160a01b031633145b61038e57600080fd5b600081815260066020908152604080832080546001600160a01b0319908116909155600190925290912080549091166001600160a01b0384161790556103d48382610815565b6001600160a01b03808316600081815260056020908152604080832080546001810182559084529183209091018590555184938716917fddf252ad1be2c89b69c2b068fc378daa952ba7f163c4a11628f55a4df523b3ef91a460405181906000906001600160a01b038616907f8c5be1e5ebec7d5bd14f71427d1e84f3dd0314c0f7b2291e5b200ac8c7c3b925908390a4505050565b6000818152600160205260409020546060906001600160a01b031661048e57600080fd5b600082815260026020526040902080546104a790610bbd565b80601f01602080910402602001604051908101604052809291908181526020018280546104d390610bbd565b80156105205780601f106104f557610100808354040283529160200191610520565b820191906000526020600020905b81548152906001019060200180831161050357829003601f168201915b50505050509050919050565b6000838152600160205260409020546001600160a01b03161580159061056857506000838152600160205260409020546001600160a01b031633145b61057157600080fd5b600083815260026020526040902061058a828483610c45565b50505050565b60606009805461059f90610bbd565b80601f01602080910402602001604051908101604052809291908181526020018280546105cb90610bbd565b80156106185780601f106105ed57610100808354040283529160200191610618565b820191906000526020600020905b8154815290600101906020018083116105fb57829003601f168201915b5050505050905090565b6000818152600160205260409020546001600160a01b03161580159061065c575060008181526007602052604090205460ff161515600114155b8015610675575060008181526004602052604090205442105b61067e57600080fd5b6000908152600760205260409020805460ff19166001179055565b6008546000906001600160a01b031633146106b357600080fd5b6000805490600190806106c68385610d1c565b90915550600090506106db42620d2f00610d1c565b600083815260016020908152604080832080546001600160a01b0319166001600160a01b038b16179055600290915290209091506107198582610d2f565b5060405180604001604052806007815260200166191959985d5b1d60ca1b8152506003600084815260200190815260200160002090816107599190610d2f565b50600082815260046020908152604080832084905560078252808320805460ff191690556001600160a01b038816808452600583528184208054600181018255908552928420909201859055518492907fddf252ad1be2c89b69c2b068fc378daa952ba7f163c4a11628f55a4df523b3ef908290a45090505b92915050565b6000818152600160205260408120546001600160a01b03166107f957600080fd5b506000908152600160205260409020546001600160a01b031690565b60005b6001600160a01b03831660009081526005602052604090205461083d90600190610def565b8111610959576001600160a01b038316600090815260056020526040902080548391908390811061087057610870610e02565b906000526020600020015403610947576001600160a01b038316600090815260056020526040902080546108a690600190610def565b815481106108b6576108b6610e02565b906000526020600020015460056000856001600160a01b03166001600160a01b0316815260200190815260200160002082815481106108f7576108f7610e02565b60009182526020808320909101929092556001600160a01b038516815260059091526040902080548061092c5761092c610e18565b60019003818190600052602060002001600090559055505050565b8061095181610e2e565b915050610818565b505050565b60006020828403121561097057600080fd5b5035919050565b80356001600160a01b038116811461098e57600080fd5b919050565b600080604083850312156109a657600080fd5b6109af83610977565b946020939093013593505050565b6000806000606084860312156109d257600080fd5b6109db84610977565b92506109e960208501610977565b9150604084013590509250925092565b600060208083528351808285015260005b81811015610a2657858101830151858201604001528201610a0a565b506000604082860101526040601f19601f8301168501019250505092915050565b600060208284031215610a5957600080fd5b610a6282610977565b9392505050565b600080600060408486031215610a7e57600080fd5b83359250602084013567ffffffffffffffff80821115610a9d57600080fd5b818601915086601f830112610ab157600080fd5b813581811115610ac057600080fd5b876020828501011115610ad257600080fd5b6020830194508093505050509250925092565b634e487b7160e01b600052604160045260246000fd5b60008060408385031215610b0e57600080fd5b610b1783610977565b9150602083013567ffffffffffffffff80821115610b3457600080fd5b818501915085601f830112610b4857600080fd5b813581811115610b5a57610b5a610ae5565b604051601f8201601f19908116603f01168101908382118183101715610b8257610b82610ae5565b81604052828152886020848701011115610b9b57600080fd5b8260208601602083013760006020848301015280955050505050509250929050565b600181811c90821680610bd157607f821691505b602082108103610bf157634e487b7160e01b600052602260045260246000fd5b50919050565b601f82111561095957600081815260208120601f850160051c81016020861015610c1e5750805b601f850160051c820191505b81811015610c3d57828155600101610c2a565b505050505050565b67ffffffffffffffff831115610c5d57610c5d610ae5565b610c7183610c6b8354610bbd565b83610bf7565b6000601f841160018114610ca55760008515610c8d5750838201355b600019600387901b1c1916600186901b178355610cff565b600083815260209020601f19861690835b82811015610cd65786850135825560209485019460019092019101610cb6565b5086821015610cf35760001960f88860031b161c19848701351681555b505060018560011b0183555b5050505050565b634e487b7160e01b600052601160045260246000fd5b808201808211156107d2576107d2610d06565b815167ffffffffffffffff811115610d4957610d49610ae5565b610d5d81610d578454610bbd565b84610bf7565b602080601f831160018114610d925760008415610d7a5750858301515b600019600386901b1c1916600185901b178555610c3d565b600085815260208120601f198616915b82811015610dc157888601518255948401946001909101908401610da2565b5085821015610ddf5787850151600019600388901b60f8161c191681555b5050505050600190811b01905550565b818103818111156107d2576107d2610d06565b634e487b7160e01b600052603260045260246000fd5b634e487b7160e01b600052603160045260246000fd5b600060018201610e4057610e40610d06565b506001019056fea2646970667358221220fe927598fc2c830a0a921ba88fec66c99380a6fc29855bcd29d9d4de5bf2dad864736f6c63430008130033a2646970667358221220f2ad75b40ea7f2108d123d2a5ae5c890fa306ab07b7db9934212ef1442e7fab264736f6c63430008130033",
    "sourcePath": "c:/Users/范乾程/Desktop/pdl/coursework-fall-skeleton/src/contracts/PrimaryMarket.sol",
    "compiler": {
        "name": "solc",
        "version": "0.8.19+commit.7dd6d404"
    },
    "functionHashes": {
        "createNewEvent(string,uint256,uint256)": "a5cd54d4",
        "getPrice(address)": "41976e09",
        "purchase(address,string)": "3a1b1d57"
    },
    "gasEstimates": {
        "creation": {
            "codeDepositCost": "1355800",
            "executionCost": "infinite",
            "totalCost": "infinite"
        },
        "external": {
            "createNewEvent(string,uint256,uint256)": "infinite",
            "getPrice(address)": "2532",
            "purchase(address,string)": "infinite"
        }
    }
}