{
    "contractName": "SecondaryMarket",
    "abi": [
        {
            "inputs": [
                {
                    "internalType": "contract IERC20",
                    "name": "purchaseToken",
                    "type": "address"
                }
            ],
            "stateMutability": "nonpayable",
            "type": "constructor"
        },
        {
            "anonymous": false,
            "inputs": [
                {
                    "indexed": true,
                    "internalType": "address",
                    "name": "bidder",
                    "type": "address"
                },
                {
                    "indexed": true,
                    "internalType": "address",
                    "name": "ticketCollection",
                    "type": "address"
                },
                {
                    "indexed": true,
                    "internalType": "uint256",
                    "name": "ticketID",
                    "type": "uint256"
                },
                {
                    "indexed": false,
                    "internalType": "uint256",
                    "name": "bidAmount",
                    "type": "uint256"
                },
                {
                    "indexed": false,
                    "internalType": "string",
                    "name": "newName",
                    "type": "string"
                }
            ],
            "name": "BidAccepted",
            "type": "event"
        },
        {
            "anonymous": false,
            "inputs": [
                {
                    "indexed": true,
                    "internalType": "address",
                    "name": "bidder",
                    "type": "address"
                },
                {
                    "indexed": true,
                    "internalType": "address",
                    "name": "ticketCollection",
                    "type": "address"
                },
                {
                    "indexed": true,
                    "internalType": "uint256",
                    "name": "ticketID",
                    "type": "uint256"
                },
                {
                    "indexed": false,
                    "internalType": "uint256",
                    "name": "bidAmount",
                    "type": "uint256"
                },
                {
                    "indexed": false,
                    "internalType": "string",
                    "name": "newName",
                    "type": "string"
                }
            ],
            "name": "BidSubmitted",
            "type": "event"
        },
        {
            "anonymous": false,
            "inputs": [
                {
                    "indexed": true,
                    "internalType": "address",
                    "name": "ticketCollection",
                    "type": "address"
                },
                {
                    "indexed": true,
                    "internalType": "uint256",
                    "name": "ticketID",
                    "type": "uint256"
                }
            ],
            "name": "Delisting",
            "type": "event"
        },
        {
            "anonymous": false,
            "inputs": [
                {
                    "indexed": true,
                    "internalType": "address",
                    "name": "holder",
                    "type": "address"
                },
                {
                    "indexed": true,
                    "internalType": "address",
                    "name": "ticketCollection",
                    "type": "address"
                },
                {
                    "indexed": true,
                    "internalType": "uint256",
                    "name": "ticketID",
                    "type": "uint256"
                },
                {
                    "indexed": false,
                    "internalType": "uint256",
                    "name": "price",
                    "type": "uint256"
                }
            ],
            "name": "Listing",
            "type": "event"
        },
        {
            "inputs": [
                {
                    "internalType": "address",
                    "name": "ticketCollection",
                    "type": "address"
                },
                {
                    "internalType": "uint256",
                    "name": "ticketID",
                    "type": "uint256"
                }
            ],
            "name": "acceptBid",
            "outputs": [],
            "stateMutability": "nonpayable",
            "type": "function"
        },
        {
            "inputs": [
                {
                    "internalType": "address",
                    "name": "ticketCollection",
                    "type": "address"
                },
                {
                    "internalType": "uint256",
                    "name": "ticketID",
                    "type": "uint256"
                }
            ],
            "name": "delistTicket",
            "outputs": [],
            "stateMutability": "nonpayable",
            "type": "function"
        },
        {
            "inputs": [
                {
                    "internalType": "address",
                    "name": "ticketCollection",
                    "type": "address"
                },
                {
                    "internalType": "uint256",
                    "name": "ticketId",
                    "type": "uint256"
                }
            ],
            "name": "getHighestBid",
            "outputs": [
                {
                    "internalType": "uint256",
                    "name": "",
                    "type": "uint256"
                }
            ],
            "stateMutability": "view",
            "type": "function"
        },
        {
            "inputs": [
                {
                    "internalType": "address",
                    "name": "ticketCollection",
                    "type": "address"
                },
                {
                    "internalType": "uint256",
                    "name": "ticketId",
                    "type": "uint256"
                }
            ],
            "name": "getHighestBidder",
            "outputs": [
                {
                    "internalType": "address",
                    "name": "",
                    "type": "address"
                }
            ],
            "stateMutability": "view",
            "type": "function"
        },
        {
            "inputs": [
                {
                    "internalType": "address",
                    "name": "ticketCollection",
                    "type": "address"
                },
                {
                    "internalType": "uint256",
                    "name": "ticketID",
                    "type": "uint256"
                },
                {
                    "internalType": "uint256",
                    "name": "price",
                    "type": "uint256"
                }
            ],
            "name": "listTicket",
            "outputs": [],
            "stateMutability": "nonpayable",
            "type": "function"
        },
        {
            "inputs": [
                {
                    "internalType": "address",
                    "name": "ticketCollection",
                    "type": "address"
                },
                {
                    "internalType": "uint256",
                    "name": "ticketID",
                    "type": "uint256"
                },
                {
                    "internalType": "uint256",
                    "name": "bidAmount",
                    "type": "uint256"
                },
                {
                    "internalType": "string",
                    "name": "name",
                    "type": "string"
                }
            ],
            "name": "submitBid",
            "outputs": [],
            "stateMutability": "nonpayable",
            "type": "function"
        },
        {
            "inputs": [
                {
                    "internalType": "address",
                    "name": "",
                    "type": "address"
                },
                {
                    "internalType": "uint256",
                    "name": "",
                    "type": "uint256"
                }
            ],
            "name": "ticketBidList",
            "outputs": [
                {
                    "internalType": "address",
                    "name": "sender",
                    "type": "address"
                },
                {
                    "internalType": "string",
                    "name": "name",
                    "type": "string"
                },
                {
                    "internalType": "uint256",
                    "name": "price",
                    "type": "uint256"
                }
            ],
            "stateMutability": "view",
            "type": "function"
        },
        {
            "inputs": [
                {
                    "internalType": "address",
                    "name": "",
                    "type": "address"
                },
                {
                    "internalType": "uint256",
                    "name": "",
                    "type": "uint256"
                }
            ],
            "name": "ticketList",
            "outputs": [
                {
                    "internalType": "address",
                    "name": "owner",
                    "type": "address"
                },
                {
                    "internalType": "uint256",
                    "name": "price",
                    "type": "uint256"
                },
                {
                    "internalType": "bool",
                    "name": "active",
                    "type": "bool"
                }
            ],
            "stateMutability": "view",
            "type": "function"
        }
    ],
    "bytecode": "608060405234801561001057600080fd5b506040516117e63803806117e683398101604081905261002f91610054565b600080546001600160a01b0319166001600160a01b0392909216919091179055610084565b60006020828403121561006657600080fd5b81516001600160a01b038116811461007d57600080fd5b9392505050565b611753806100936000396000f3fe608060405234801561001057600080fd5b50600436106100885760003560e01c80638226508d1161005b5780638226508d14610148578063955a5a7614610169578063a670a9b41461017c578063f489b89a146101ca57600080fd5b80631d66b15c1461008d578063694ec414146100a25780636aeb4e6e14610113578063793bba6c14610135575b600080fd5b6100a061009b366004611311565b6101dd565b005b6100e76100b0366004611346565b600160208181526000938452604080852090915291835291208054918101546002909101546001600160a01b039092169160ff1683565b604080516001600160a01b03909416845260208401929092521515908201526060015b60405180910390f35b610126610121366004611346565b6103dd565b60405161010a939291906113b8565b6100a06101433660046113ec565b61049d565b61015b610156366004611346565b6108dd565b60405190815260200161010a565b6100a0610177366004611346565b610a6f565b6101b261018a366004611346565b6001600160a01b03918216600090815260026020908152604080832093835292905220541690565b6040516001600160a01b03909116815260200161010a565b6100a06101d8366004611346565b610fc6565b60405163dbacc23760e01b815260048101839052839033906001600160a01b0383169063dbacc23790602401602060405180830381865afa158015610226573d6000803e3d6000fd5b505050506040513d601f19601f8201168201806040525081019061024a9190611482565b6001600160a01b03161480156102c657506040516306b0362b60e21b8152600481018490526001600160a01b03821690631ac0d8ac90602401602060405180830381865afa1580156102a0573d6000803e3d6000fd5b505050506040513d601f19601f820116820180604052508101906102c491906114a6565b155b6102cf57600080fd5b6040516323b872dd60e01b81526001600160a01b038216906323b872dd906102ff903390309088906004016114c8565b600060405180830381600087803b15801561031957600080fd5b505af115801561032d573d6000803e3d6000fd5b50506040805160608101825233808252602080830188815260018486018181526001600160a01b038d811660008181528487528981208f82528752899020975188546001600160a01b0319169216919091178755925191860191909155516002909401805460ff1916941515949094179093559251878152889550919350917f84d2359781d0cae07f76a233e689a83b58360925f9177ebc367b5233511aab93910160405180910390a450505050565b6002602090815260009283526040808420909152908252902080546001820180546001600160a01b039092169291610414906114ec565b80601f0160208091040260200160405190810160405280929190818152602001828054610440906114ec565b801561048d5780601f106104625761010080835404028352916020019161048d565b820191906000526020600020905b81548152906001019060200180831161047057829003601f168201915b5050505050908060020154905083565b6001600160a01b0385811660008181526001602081815260408084208a855282529283902083516060810185528154909616865291820154908501526002015460ff16151583820152516306b0362b60e21b815260048101879052879190631ac0d8ac90602401602060405180830381865afa158015610521573d6000803e3d6000fd5b505050506040513d601f19601f8201168201806040525081019061054591906114a6565b1561054f57600080fd5b816040015161055d57600080fd5b816020015185101561056e57600080fd5b6000546040516370a0823160e01b815233600482015286916001600160a01b0316906370a0823190602401602060405180830381865afa1580156105b6573d6000803e3d6000fd5b505050506040513d601f19601f820116820180604052508101906105da9190611526565b10156105e557600080fd5b6001600160a01b0380881660009081526002602090815260408083208a8452825280832081516060810190925280549094168152600184018054939491939192840191610631906114ec565b80601f016020809104026020016040519081016040528092919081815260200182805461065d906114ec565b80156106aa5780601f1061067f576101008083540402835291602001916106aa565b820191906000526020600020905b81548152906001019060200180831161068d57829003601f168201915b50505091835250506002919091015460209091015280519091506001600160a01b03161561075c57806040015186116106e257600080fd5b60005481516040516323b872dd60e01b81526001600160a01b03909216916323b872dd91610717913091908b906004016114c8565b6020604051808303816000875af1158015610736573d6000803e3d6000fd5b505050506040513d601f19601f8201168201806040525081019061075a91906114a6565b505b6000546040516323b872dd60e01b81526001600160a01b03909116906323b872dd9061079090339030908b906004016114c8565b6020604051808303816000875af11580156107af573d6000803e3d6000fd5b505050506040513d601f19601f820116820180604052508101906107d391906114a6565b506040518060600160405280336001600160a01b0316815260200186868080601f016020809104026020016040519081016040528093929190818152602001838380828437600092018290525093855250505060209182018990526001600160a01b038b811682526002835260408083208c84528452909120835181546001600160a01b031916921691909117815590820151600182019061087590826115a4565b506040820151816002015590505086886001600160a01b0316336001600160a01b03167f85f2e66743c0791ddd157dc7ab9a9649a6839e2d79276c17187da6c0a3a860cd8989896040516108cb93929190611664565b60405180910390a45050505050505050565b6001600160a01b0380831660009081526002602090815260408083208584528252808320815160608101909252805490941681526001840180549394859492939092908401919061092d906114ec565b80601f0160208091040260200160405190810160405280929190818152602001828054610959906114ec565b80156109a65780601f1061097b576101008083540402835291602001916109a6565b820191906000526020600020905b81548152906001019060200180831161098957829003601f168201915b50505091835250506002918201546020918201526001600160a01b038088166000908152600180845260408083208a8452855291829020825160608101845281549094168452908101549383018490529093015460ff1615158184015291830151929350909110610a3f575050506001600160a01b03821660009081526002602081815260408084208585529091529091200154610a69565b5050506001600160a01b038216600090815260016020818152604080842085855290915290912001545b92915050565b6001600160a01b038216600090815260016020908152604080832084845290915290206002015460ff168015610ac957506001600160a01b0382811660009081526002602090815260408083208584529091529020541615155b8015610af957506001600160a01b0382811660009081526001602090815260408083208584529091529020541633145b610b0257600080fd5b6001600160a01b0380831660008181526001602081815260408084208785528252808420815160608082018452825489168252828601548286015260029283015460ff161515828501529686529083528185208886528352818520825196870190925281549096168552918201805493949391840191610b81906114ec565b80601f0160208091040260200160405190810160405280929190818152602001828054610bad906114ec565b8015610bfa5780601f10610bcf57610100808354040283529160200191610bfa565b820191906000526020600020905b815481529060010190602001808311610bdd57829003601f168201915b5050509183525050600291909101546020909101526040516306b0362b60e21b81526004810185905290915084906001600160a01b03821690631ac0d8ac90602401602060405180830381865afa158015610c59573d6000803e3d6000fd5b505050506040513d601f19601f82011682018060405250810190610c7d91906114a6565b15610c8757600080fd5b6020820151604051637b615c4b60e01b81526001600160a01b03831691637b615c4b91610cb891889160040161169a565b600060405180830381600087803b158015610cd257600080fd5b505af1158015610ce6573d6000803e3d6000fd5b505083516040516323b872dd60e01b81526001600160a01b03851693506323b872dd9250610d1a91309189906004016114c8565b600060405180830381600087803b158015610d3457600080fd5b505af1158015610d48573d6000803e3d6000fd5b50505050600060648360400151605f610d6191906116d1565b610d6b91906116e8565b90506000818460400151610d7f919061170a565b905060008054906101000a90046001600160a01b03166001600160a01b031663a9059cbb846001600160a01b03166302d05d3f6040518163ffffffff1660e01b8152600401602060405180830381865afa158015610de1573d6000803e3d6000fd5b505050506040513d601f19601f82011682018060405250810190610e059190611482565b6040516001600160e01b031960e084901b1681526001600160a01b039091166004820152602481018490526044016020604051808303816000875af1158015610e52573d6000803e3d6000fd5b505050506040513d601f19601f82011682018060405250810190610e7691906114a6565b50600054855160405163a9059cbb60e01b81526001600160a01b0391821660048201526024810185905291169063a9059cbb906044016020604051808303816000875af1158015610ecb573d6000803e3d6000fd5b505050506040513d601f19601f82011682018060405250810190610eef91906114a6565b506001600160a01b03871660008181526001602081815260408084208b8552825280842080546001600160a01b031990811682558185018690556002918201805460ff1916905595855282528084208b8552909152822080549093168355610f59908301826112a6565b6002820160009055505085876001600160a01b031685600001516001600160a01b03167fe617cb81f1ecf15453e5ac151d07668051d9faa4f959e6d2dffa2f4327a1554587604001518860200151604051610fb592919061169a565b60405180910390a450505050505050565b6001600160a01b038216600090815260016020908152604080832084845290915290206002015460ff16801561102057506001600160a01b0382811660009081526001602090815260408083208584529091529020541633145b61102957600080fd5b6040516323b872dd60e01b815282906001600160a01b038216906323b872dd9061105b903090339087906004016114c8565b600060405180830381600087803b15801561107557600080fd5b505af1158015611089573d6000803e3d6000fd5b5050506001600160a01b038085166000908152600260209081526040808320878452825280832081516060810190925280549094168152600184018054939550909392918401916110d9906114ec565b80601f0160208091040260200160405190810160405280929190818152602001828054611105906114ec565b80156111525780601f1061112757610100808354040283529160200191611152565b820191906000526020600020905b81548152906001019060200180831161113557829003601f168201915b50505091835250506002919091015460209091015280519091506001600160a01b0316156111f657600054815160408084015190516323b872dd60e01b81526001600160a01b03909316926323b872dd926111b19230926004016114c8565b6020604051808303816000875af11580156111d0573d6000803e3d6000fd5b505050506040513d601f19601f820116820180604052508101906111f491906114a6565b505b6001600160a01b0384166000818152600160208181526040808420888552825280842080546001600160a01b031990811682558185018690556002918201805460ff19169055958552825280842088855290915282208054909316835561125f908301826112a6565b6002820160009055505082846001600160a01b03167f9c74d776e5765f64303c82b9dceb594cdf4d4e054e6530a839715a276532e0ab60405160405180910390a350505050565b5080546112b2906114ec565b6000825580601f106112c2575050565b601f0160209004906000526020600020908101906112e091906112e3565b50565b5b808211156112f857600081556001016112e4565b5090565b6001600160a01b03811681146112e057600080fd5b60008060006060848603121561132657600080fd5b8335611331816112fc565b95602085013595506040909401359392505050565b6000806040838503121561135957600080fd5b8235611364816112fc565b946020939093013593505050565b6000815180845260005b818110156113985760208185018101518683018201520161137c565b506000602082860101526020601f19601f83011685010191505092915050565b6001600160a01b03841681526060602082018190526000906113dc90830185611372565b9050826040830152949350505050565b60008060008060006080868803121561140457600080fd5b853561140f816112fc565b94506020860135935060408601359250606086013567ffffffffffffffff8082111561143a57600080fd5b818801915088601f83011261144e57600080fd5b81358181111561145d57600080fd5b89602082850101111561146f57600080fd5b9699959850939650602001949392505050565b60006020828403121561149457600080fd5b815161149f816112fc565b9392505050565b6000602082840312156114b857600080fd5b8151801515811461149f57600080fd5b6001600160a01b039384168152919092166020820152604081019190915260600190565b600181811c9082168061150057607f821691505b60208210810361152057634e487b7160e01b600052602260045260246000fd5b50919050565b60006020828403121561153857600080fd5b5051919050565b634e487b7160e01b600052604160045260246000fd5b601f82111561159f57600081815260208120601f850160051c8101602086101561157c5750805b601f850160051c820191505b8181101561159b57828155600101611588565b5050505b505050565b815167ffffffffffffffff8111156115be576115be61153f565b6115d2816115cc84546114ec565b84611555565b602080601f83116001811461160757600084156115ef5750858301515b600019600386901b1c1916600185901b17855561159b565b600085815260208120601f198616915b8281101561163657888601518255948401946001909101908401611617565b50858210156116545787850151600019600388901b60f8161c191681555b5050505050600190811b01905550565b83815260406020820152816040820152818360608301376000818301606090810191909152601f909201601f1916010192915050565b8281526040602082015260006116b36040830184611372565b949350505050565b634e487b7160e01b600052601160045260246000fd5b8082028115828204841417610a6957610a696116bb565b60008261170557634e487b7160e01b600052601260045260246000fd5b500490565b81810381811115610a6957610a696116bb56fea2646970667358221220a9cf24e654abc1f3ec96c667fbbcd7b6a949c3da3cfb37aa102c642ad62bde1864736f6c63430008130033",
    "sourcePath": "c:/Users//Desktop/pdl/coursework-fall-skeleton/src/contracts/SecondaryMarket.sol",
    "compiler": {
        "name": "solc",
        "version": "0.8.19+commit.7dd6d404"
    },
    "functionHashes": {
        "acceptBid(address,uint256)": "955a5a76",
        "delistTicket(address,uint256)": "f489b89a",
        "getHighestBid(address,uint256)": "8226508d",
        "getHighestBidder(address,uint256)": "a670a9b4",
        "listTicket(address,uint256,uint256)": "1d66b15c",
        "submitBid(address,uint256,uint256,string)": "793bba6c",
        "ticketBidList(address,uint256)": "6aeb4e6e",
        "ticketList(address,uint256)": "694ec414"
    },
    "gasEstimates": {
        "creation": {
            "codeDepositCost": "1194200",
            "executionCost": "infinite",
            "totalCost": "infinite"
        },
        "external": {
            "acceptBid(address,uint256)": "infinite",
            "delistTicket(address,uint256)": "infinite",
            "getHighestBid(address,uint256)": "infinite",
            "getHighestBidder(address,uint256)": "2695",
            "listTicket(address,uint256,uint256)": "infinite",
            "submitBid(address,uint256,uint256,string)": "infinite",
            "ticketBidList(address,uint256)": "infinite",
            "ticketList(address,uint256)": "6944"
        }
    }
}