{
    "contractName": "TicketNFT",
    "abi": [
        {
            "inputs": [
                {
                    "internalType": "address",
                    "name": "Sender",
                    "type": "address"
                },
                {
                    "internalType": "string",
                    "name": "newEventName",
                    "type": "string"
                },
                {
                    "internalType": "uint256",
                    "name": "price",
                    "type": "uint256"
                },
                {
                    "internalType": "uint256",
                    "name": "totalNum",
                    "type": "uint256"
                }
            ],
            "stateMutability": "nonpayable",
            "type": "constructor"
        },
        {
            "anonymous": false,
            "inputs": [
                {
                    "indexed": true,
                    "internalType": "address",
                    "name": "holder",
                    "type": "address"
                },
                {
                    "indexed": true,
                    "internalType": "address",
                    "name": "approved",
                    "type": "address"
                },
                {
                    "indexed": true,
                    "internalType": "uint256",
                    "name": "ticketID",
                    "type": "uint256"
                }
            ],
            "name": "Approval",
            "type": "event"
        },
        {
            "anonymous": false,
            "inputs": [
                {
                    "indexed": true,
                    "internalType": "address",
                    "name": "from",
                    "type": "address"
                },
                {
                    "indexed": true,
                    "internalType": "address",
                    "name": "to",
                    "type": "address"
                },
                {
                    "indexed": true,
                    "internalType": "uint256",
                    "name": "ticketID",
                    "type": "uint256"
                }
            ],
            "name": "Transfer",
            "type": "event"
        },
        {
            "inputs": [
                {
                    "internalType": "address",
                    "name": "to",
                    "type": "address"
                },
                {
                    "internalType": "uint256",
                    "name": "ticketID",
                    "type": "uint256"
                }
            ],
            "name": "approve",
            "outputs": [],
            "stateMutability": "nonpayable",
            "type": "function"
        },
        {
            "inputs": [
                {
                    "internalType": "address",
                    "name": "holder",
                    "type": "address"
                }
            ],
            "name": "balanceOf",
            "outputs": [
                {
                    "internalType": "uint256",
                    "name": "balance",
                    "type": "uint256"
                }
            ],
            "stateMutability": "view",
            "type": "function"
        },
        {
            "inputs": [],
            "name": "creator",
            "outputs": [
                {
                    "internalType": "address",
                    "name": "",
                    "type": "address"
                }
            ],
            "stateMutability": "view",
            "type": "function"
        },
        {
            "inputs": [],
            "name": "eventName",
            "outputs": [
                {
                    "internalType": "string",
                    "name": "",
                    "type": "string"
                }
            ],
            "stateMutability": "view",
            "type": "function"
        },
        {
            "inputs": [
                {
                    "internalType": "uint256",
                    "name": "ticketID",
                    "type": "uint256"
                }
            ],
            "name": "getApproved",
            "outputs": [
                {
                    "internalType": "address",
                    "name": "operator",
                    "type": "address"
                }
            ],
            "stateMutability": "view",
            "type": "function"
        },
        {
            "inputs": [
                {
                    "internalType": "uint256",
                    "name": "ticketID",
                    "type": "uint256"
                }
            ],
            "name": "holderNameOf",
            "outputs": [
                {
                    "internalType": "string",
                    "name": "holderName",
                    "type": "string"
                }
            ],
            "stateMutability": "view",
            "type": "function"
        },
        {
            "inputs": [
                {
                    "internalType": "uint256",
                    "name": "ticketID",
                    "type": "uint256"
                }
            ],
            "name": "holderOf",
            "outputs": [
                {
                    "internalType": "address",
                    "name": "holder",
                    "type": "address"
                }
            ],
            "stateMutability": "view",
            "type": "function"
        },
        {
            "inputs": [
                {
                    "internalType": "uint256",
                    "name": "ticketID",
                    "type": "uint256"
                }
            ],
            "name": "isExpiredOrUsed",
            "outputs": [
                {
                    "internalType": "bool",
                    "name": "",
                    "type": "bool"
                }
            ],
            "stateMutability": "view",
            "type": "function"
        },
        {
            "inputs": [],
            "name": "maxNumberOfTickets",
            "outputs": [
                {
                    "internalType": "uint256",
                    "name": "",
                    "type": "uint256"
                }
            ],
            "stateMutability": "view",
            "type": "function"
        },
        {
            "inputs": [
                {
                    "internalType": "address",
                    "name": "holder",
                    "type": "address"
                },
                {
                    "internalType": "string",
                    "name": "holderName",
                    "type": "string"
                }
            ],
            "name": "mint",
            "outputs": [
                {
                    "internalType": "uint256",
                    "name": "id",
                    "type": "uint256"
                }
            ],
            "stateMutability": "nonpayable",
            "type": "function"
        },
        {
            "inputs": [
                {
                    "internalType": "uint256",
                    "name": "ticketID",
                    "type": "uint256"
                }
            ],
            "name": "setUsed",
            "outputs": [],
            "stateMutability": "nonpayable",
            "type": "function"
        },
        {
            "inputs": [
                {
                    "internalType": "address",
                    "name": "from",
                    "type": "address"
                },
                {
                    "internalType": "address",
                    "name": "to",
                    "type": "address"
                },
                {
                    "internalType": "uint256",
                    "name": "ticketID",
                    "type": "uint256"
                }
            ],
            "name": "transferFrom",
            "outputs": [],
            "stateMutability": "nonpayable",
            "type": "function"
        },
        {
            "inputs": [
                {
                    "internalType": "uint256",
                    "name": "ticketID",
                    "type": "uint256"
                },
                {
                    "internalType": "string",
                    "name": "newName",
                    "type": "string"
                }
            ],
            "name": "updateHolderName",
            "outputs": [],
            "stateMutability": "nonpayable",
            "type": "function"
        }
    ],
    "bytecode": "6080604052600080553480156200001557600080fd5b506040516200121138038062001211833981016040819052620000389162000098565b600880546001600160a01b0386166001600160a01b031991821617909155600780549091163317905560096200006f84826200022d565b50600a91909155600b5550620002f99050565b634e487b7160e01b600052604160045260246000fd5b60008060008060808587031215620000af57600080fd5b84516001600160a01b0381168114620000c757600080fd5b602086810151919550906001600160401b0380821115620000e757600080fd5b818801915088601f830112620000fc57600080fd5b81518181111562000111576200011162000082565b604051601f8201601f19908116603f011681019083821181831017156200013c576200013c62000082565b816040528281528b868487010111156200015557600080fd5b600093505b828410156200017957848401860151818501870152928501926200015a565b6000928101909501919091525050506040860151606090960151949790965092505050565b600181811c90821680620001b357607f821691505b602082108103620001d457634e487b7160e01b600052602260045260246000fd5b50919050565b601f8211156200022857600081815260208120601f850160051c81016020861015620002035750805b601f850160051c820191505b8181101562000224578281556001016200020f565b5050505b505050565b81516001600160401b0381111562000249576200024962000082565b62000261816200025a84546200019e565b84620001da565b602080601f831160018114620002995760008415620002805750858301515b600019600386901b1c1916600185901b17855562000224565b600085815260208120601f198616915b82811015620002ca57888601518255948401946001909101908401620002a9565b5085821015620002e95787850151600019600388901b60f8161c191681555b5050505050600190811b01905550565b610f0880620003096000396000f3fe608060405234801561001057600080fd5b50600436106100cf5760003560e01c806370a082311161008c5780638543016c116100665780638543016c146101e4578063d0def521146101f7578063dbacc2371461020a578063fdf8a44e1461021d57600080fd5b806370a08231146101925780637b615c4b146101c95780638043c9c0146101dc57600080fd5b806302d05d3f146100d4578063081812fc146100fe578063095ea7b3146101275780631ac0d8ac1461013c57806323b872dd1461015f578063600580d514610172575b600080fd5b6008546001600160a01b03165b6040516001600160a01b0390911681526020015b60405180910390f35b6100e161010c3660046109e9565b6000908152600560205260409020546001600160a01b031690565b61013a610135366004610a1e565b610225565b005b61014f61014a3660046109e9565b610350565b60405190151581526020016100f5565b61013a61016d366004610a48565b6103b0565b6101856101803660046109e9565b61051f565b6040516100f59190610a84565b6101bb6101a0366004610ad2565b6001600160a01b031660009081526004602052604090205490565b6040519081526020016100f5565b61013a6101d7366004610af4565b6105e1565b610185610645565b61013a6101f23660046109e9565b6106d7565b6101bb610205366004610b86565b610764565b6100e16102183660046109e9565b610863565b600b546101bb565b6000818152600160205260409020546001600160a01b03166102855760405162461bcd60e51b81526020600482015260146024820152731d1a19481d1a58dad95d081b9bdd08195e1a5cdd60621b60448201526064015b60405180910390fd5b6000818152600160205260409020546001600160a01b031633146102f75760405162461bcd60e51b815260206004820152602360248201527f6f6e6c79207469636b657420686f6c6465722063616e2063616c6c20617070726044820152626f766560e81b606482015260840161027c565b60008181526005602052604080822080546001600160a01b0319166001600160a01b0386169081179091559051839233917f8c5be1e5ebec7d5bd14f71427d1e84f3dd0314c0f7b2291e5b200ac8c7c3b9259190a45050565b6000818152600160205260408120546001600160a01b031661037157600080fd5b60008281526003602052604090205442118061039b575060008281526006602052604090205460ff165b156103a857506001919050565b506000919050565b6001600160a01b038316158015906103d057506001600160a01b03821615155b6103d957600080fd5b6000818152600160205260409020546001600160a01b038481169116146103ff57600080fd5b6000818152600560205260409020546001600160a01b031633148061043a57506000818152600160205260409020546001600160a01b031633145b61044357600080fd5b600081815260056020908152604080832080546001600160a01b0319908116909155600190925290912080549091166001600160a01b03841617905561048983826108a0565b6001600160a01b03808316600081815260046020908152604080832080546001810182559084529183209091018590555184938716917fddf252ad1be2c89b69c2b068fc378daa952ba7f163c4a11628f55a4df523b3ef91a460405181906000906001600160a01b038616907f8c5be1e5ebec7d5bd14f71427d1e84f3dd0314c0f7b2291e5b200ac8c7c3b925908390a4505050565b6000818152600160205260409020546060906001600160a01b031661054357600080fd5b6000828152600260205260409020805461055c90610c48565b80601f016020809104026020016040519081016040528092919081815260200182805461058890610c48565b80156105d55780601f106105aa576101008083540402835291602001916105d5565b820191906000526020600020905b8154815290600101906020018083116105b857829003601f168201915b50505050509050919050565b6000838152600160205260409020546001600160a01b03161580159061061d57506000838152600160205260409020546001600160a01b031633145b61062657600080fd5b600083815260026020526040902061063f828483610cd0565b50505050565b60606009805461065490610c48565b80601f016020809104026020016040519081016040528092919081815260200182805461068090610c48565b80156106cd5780601f106106a2576101008083540402835291602001916106cd565b820191906000526020600020905b8154815290600101906020018083116106b057829003601f168201915b5050505050905090565b6000818152600160205260409020546001600160a01b03166106f857600080fd5b60008181526006602052604090205460ff16151560010361071857600080fd5b600081815260036020526040902054421061073257600080fd5b6008546001600160a01b0316331461074957600080fd5b6000908152600660205260409020805460ff19166001179055565b6007546000906001600160a01b0316331461077e57600080fd5b6000805490600190806107918385610da7565b90915550600090506107a642620d2f00610da7565b600083815260016020908152604080832080546001600160a01b0319166001600160a01b038b16179055600290915290209091506107e48582610dba565b50600082815260036020908152604080832084905560068252808320805460ff191690556001600160a01b038816808452600483528184208054600181018255908552928420909201859055518492907fddf252ad1be2c89b69c2b068fc378daa952ba7f163c4a11628f55a4df523b3ef908290a45090505b92915050565b6000818152600160205260408120546001600160a01b031661088457600080fd5b506000908152600160205260409020546001600160a01b031690565b60005b6001600160a01b0383166000908152600460205260409020546108c890600190610e7a565b81116109e4576001600160a01b03831660009081526004602052604090208054839190839081106108fb576108fb610e8d565b9060005260206000200154036109d2576001600160a01b0383166000908152600460205260409020805461093190600190610e7a565b8154811061094157610941610e8d565b906000526020600020015460046000856001600160a01b03166001600160a01b03168152602001908152602001600020828154811061098257610982610e8d565b60009182526020808320909101929092556001600160a01b03851681526004909152604090208054806109b7576109b7610ea3565b60019003818190600052602060002001600090559055505050565b806109dc81610eb9565b9150506108a3565b505050565b6000602082840312156109fb57600080fd5b5035919050565b80356001600160a01b0381168114610a1957600080fd5b919050565b60008060408385031215610a3157600080fd5b610a3a83610a02565b946020939093013593505050565b600080600060608486031215610a5d57600080fd5b610a6684610a02565b9250610a7460208501610a02565b9150604084013590509250925092565b600060208083528351808285015260005b81811015610ab157858101830151858201604001528201610a95565b506000604082860101526040601f19601f8301168501019250505092915050565b600060208284031215610ae457600080fd5b610aed82610a02565b9392505050565b600080600060408486031215610b0957600080fd5b83359250602084013567ffffffffffffffff80821115610b2857600080fd5b818601915086601f830112610b3c57600080fd5b813581811115610b4b57600080fd5b876020828501011115610b5d57600080fd5b6020830194508093505050509250925092565b634e487b7160e01b600052604160045260246000fd5b60008060408385031215610b9957600080fd5b610ba283610a02565b9150602083013567ffffffffffffffff80821115610bbf57600080fd5b818501915085601f830112610bd357600080fd5b813581811115610be557610be5610b70565b604051601f8201601f19908116603f01168101908382118183101715610c0d57610c0d610b70565b81604052828152886020848701011115610c2657600080fd5b8260208601602083013760006020848301015280955050505050509250929050565b600181811c90821680610c5c57607f821691505b602082108103610c7c57634e487b7160e01b600052602260045260246000fd5b50919050565b601f8211156109e457600081815260208120601f850160051c81016020861015610ca95750805b601f850160051c820191505b81811015610cc857828155600101610cb5565b505050505050565b67ffffffffffffffff831115610ce857610ce8610b70565b610cfc83610cf68354610c48565b83610c82565b6000601f841160018114610d305760008515610d185750838201355b600019600387901b1c1916600186901b178355610d8a565b600083815260209020601f19861690835b82811015610d615786850135825560209485019460019092019101610d41565b5086821015610d7e5760001960f88860031b161c19848701351681555b505060018560011b0183555b5050505050565b634e487b7160e01b600052601160045260246000fd5b8082018082111561085d5761085d610d91565b815167ffffffffffffffff811115610dd457610dd4610b70565b610de881610de28454610c48565b84610c82565b602080601f831160018114610e1d5760008415610e055750858301515b600019600386901b1c1916600185901b178555610cc8565b600085815260208120601f198616915b82811015610e4c57888601518255948401946001909101908401610e2d565b5085821015610e6a5787850151600019600388901b60f8161c191681555b5050505050600190811b01905550565b8181038181111561085d5761085d610d91565b634e487b7160e01b600052603260045260246000fd5b634e487b7160e01b600052603160045260246000fd5b600060018201610ecb57610ecb610d91565b506001019056fea2646970667358221220b7b3e8f7de93c8144295fc82fe2965b45c3ce12cb7d601495dd167cfaba9b86364736f6c63430008130033",
    "sourcePath": "c:/Users/范乾程/Desktop/pdl/coursework-fall-skeleton/src/contracts/TicketNFT.sol",
    "compiler": {
        "name": "solc",
        "version": "0.8.19+commit.7dd6d404"
    },
    "functionHashes": {
        "approve(address,uint256)": "095ea7b3",
        "balanceOf(address)": "70a08231",
        "creator()": "02d05d3f",
        "eventName()": "8043c9c0",
        "getApproved(uint256)": "081812fc",
        "holderNameOf(uint256)": "600580d5",
        "holderOf(uint256)": "dbacc237",
        "isExpiredOrUsed(uint256)": "1ac0d8ac",
        "maxNumberOfTickets()": "fdf8a44e",
        "mint(address,string)": "d0def521",
        "setUsed(uint256)": "8543016c",
        "transferFrom(address,address,uint256)": "23b872dd",
        "updateHolderName(uint256,string)": "7b615c4b"
    },
    "gasEstimates": {
        "creation": {
            "codeDepositCost": "769600",
            "executionCost": "infinite",
            "totalCost": "infinite"
        },
        "external": {
            "approve(address,uint256)": "31012",
            "balanceOf(address)": "2560",
            "creator()": "2310",
            "eventName()": "infinite",
            "getApproved(uint256)": "2489",
            "holderNameOf(uint256)": "infinite",
            "holderOf(uint256)": "4747",
            "isExpiredOrUsed(uint256)": "6950",
            "maxNumberOfTickets()": "2380",
            "mint(address,string)": "infinite",
            "setUsed(uint256)": "33263",
            "transferFrom(address,address,uint256)": "infinite",
            "updateHolderName(uint256,string)": "infinite"
        },
        "internal": {
            "removeTicket(address,uint256)": "infinite"
        }
    }
}