{
  "abi": [
    {
      "inputs": [
        {
          "internalType": "address",
          "name": "Sender",
          "type": "address"
        },
        {
          "internalType": "string",
          "name": "newEventName",
          "type": "string"
        },
        {
          "internalType": "uint256",
          "name": "price",
          "type": "uint256"
        },
        {
          "internalType": "uint256",
          "name": "totalNum",
          "type": "uint256"
        }
      ],
      "stateMutability": "nonpayable",
      "type": "constructor"
    },
    {
      "anonymous": false,
      "inputs": [
        {
          "indexed": true,
          "internalType": "address",
          "name": "holder",
          "type": "address"
        },
        {
          "indexed": true,
          "internalType": "address",
          "name": "approved",
          "type": "address"
        },
        {
          "indexed": true,
          "internalType": "uint256",
          "name": "ticketID",
          "type": "uint256"
        }
      ],
      "name": "Approval",
      "type": "event"
    },
    {
      "anonymous": false,
      "inputs": [
        {
          "indexed": true,
          "internalType": "address",
          "name": "from",
          "type": "address"
        },
        {
          "indexed": true,
          "internalType": "address",
          "name": "to",
          "type": "address"
        },
        {
          "indexed": true,
          "internalType": "uint256",
          "name": "ticketID",
          "type": "uint256"
        }
      ],
      "name": "Transfer",
      "type": "event"
    },
    {
      "inputs": [
        {
          "internalType": "address",
          "name": "to",
          "type": "address"
        },
        {
          "internalType": "uint256",
          "name": "ticketID",
          "type": "uint256"
        }
      ],
      "name": "approve",
      "outputs": [],
      "stateMutability": "nonpayable",
      "type": "function"
    },
    {
      "inputs": [
        {
          "internalType": "address",
          "name": "holder",
          "type": "address"
        }
      ],
      "name": "balanceOf",
      "outputs": [
        {
          "internalType": "uint256",
          "name": "balance",
          "type": "uint256"
        }
      ],
      "stateMutability": "view",
      "type": "function"
    },
    {
      "inputs": [],
      "name": "creator",
      "outputs": [
        {
          "internalType": "address",
          "name": "",
          "type": "address"
        }
      ],
      "stateMutability": "view",
      "type": "function"
    },
    {
      "inputs": [],
      "name": "eventName",
      "outputs": [
        {
          "internalType": "string",
          "name": "",
          "type": "string"
        }
      ],
      "stateMutability": "view",
      "type": "function"
    },
    {
      "inputs": [
        {
          "internalType": "uint256",
          "name": "ticketID",
          "type": "uint256"
        }
      ],
      "name": "getApproved",
      "outputs": [
        {
          "internalType": "address",
          "name": "operator",
          "type": "address"
        }
      ],
      "stateMutability": "view",
      "type": "function"
    },
    {
      "inputs": [
        {
          "internalType": "uint256",
          "name": "ticketID",
          "type": "uint256"
        }
      ],
      "name": "holderNameOf",
      "outputs": [
        {
          "internalType": "string",
          "name": "holderName",
          "type": "string"
        }
      ],
      "stateMutability": "view",
      "type": "function"
    },
    {
      "inputs": [
        {
          "internalType": "uint256",
          "name": "ticketID",
          "type": "uint256"
        }
      ],
      "name": "holderOf",
      "outputs": [
        {
          "internalType": "address",
          "name": "holder",
          "type": "address"
        }
      ],
      "stateMutability": "view",
      "type": "function"
    },
    {
      "inputs": [
        {
          "internalType": "uint256",
          "name": "ticketID",
          "type": "uint256"
        }
      ],
      "name": "isExpiredOrUsed",
      "outputs": [
        {
          "internalType": "bool",
          "name": "",
          "type": "bool"
        }
      ],
      "stateMutability": "view",
      "type": "function"
    },
    {
      "inputs": [],
      "name": "maxNumberOfTickets",
      "outputs": [
        {
          "internalType": "uint256",
          "name": "",
          "type": "uint256"
        }
      ],
      "stateMutability": "view",
      "type": "function"
    },
    {
      "inputs": [
        {
          "internalType": "address",
          "name": "holder",
          "type": "address"
        },
        {
          "internalType": "string",
          "name": "holderName",
          "type": "string"
        }
      ],
      "name": "mint",
      "outputs": [
        {
          "internalType": "uint256",
          "name": "id",
          "type": "uint256"
        }
      ],
      "stateMutability": "nonpayable",
      "type": "function"
    },
    {
      "inputs": [
        {
          "internalType": "uint256",
          "name": "ticketID",
          "type": "uint256"
        }
      ],
      "name": "setUsed",
      "outputs": [],
      "stateMutability": "nonpayable",
      "type": "function"
    },
    {
      "inputs": [
        {
          "internalType": "address",
          "name": "from",
          "type": "address"
        },
        {
          "internalType": "address",
          "name": "to",
          "type": "address"
        },
        {
          "internalType": "uint256",
          "name": "ticketID",
          "type": "uint256"
        }
      ],
      "name": "transferFrom",
      "outputs": [],
      "stateMutability": "nonpayable",
      "type": "function"
    },
    {
      "inputs": [
        {
          "internalType": "uint256",
          "name": "ticketID",
          "type": "uint256"
        },
        {
          "internalType": "string",
          "name": "newName",
          "type": "string"
        }
      ],
      "name": "updateHolderName",
      "outputs": [],
      "stateMutability": "nonpayable",
      "type": "function"
    }
  ],
  "bytecode": {
    "object": "0x6080604052600080553480156200001557600080fd5b506040516200112638038062001126833981016040819052620000389162000145565b600880546001600160a01b0386166001600160a01b031991821617909155600780549091163317905582516200007690600990602086019062000089565b50600a91909155600b5550620002909050565b828054620000979062000253565b90600052602060002090601f016020900481019282620000bb576000855562000106565b82601f10620000d657805160ff191683800117855562000106565b8280016001018555821562000106579182015b8281111562000106578251825591602001919060010190620000e9565b506200011492915062000118565b5090565b5b8082111562000114576000815560010162000119565b634e487b7160e01b600052604160045260246000fd5b600080600080608085870312156200015c57600080fd5b84516001600160a01b03811681146200017457600080fd5b602086810151919550906001600160401b03808211156200019457600080fd5b818801915088601f830112620001a957600080fd5b815181811115620001be57620001be6200012f565b604051601f8201601f19908116603f01168101908382118183101715620001e957620001e96200012f565b816040528281528b868487010111156200020257600080fd5b600093505b8284101562000226578484018601518185018701529285019262000207565b82841115620002385760008684830101525b60408b01516060909b0151999c909b50975050505050505050565b600181811c908216806200026857607f821691505b602082108114156200028a57634e487b7160e01b600052602260045260246000fd5b50919050565b610e8680620002a06000396000f3fe608060405234801561001057600080fd5b50600436106100cf5760003560e01c806370a082311161008c5780638543016c116100665780638543016c146101ce578063d0def521146101e1578063dbacc237146101f4578063fdf8a44e1461020757600080fd5b806370a082311461017c5780637b615c4b146101b35780638043c9c0146101c657600080fd5b806302d05d3f146100d4578063081812fc146100fe578063095ea7b3146101115780631ac0d8ac1461012657806323b872dd14610149578063600580d51461015c575b600080fd5b6008546001600160a01b03165b6040516001600160a01b0390911681526020015b60405180910390f35b6100e161010c366004610b23565b61020f565b61012461011f366004610b58565b61024c565b005b610139610134366004610b23565b610377565b60405190151581526020016100f5565b610124610157366004610b82565b6103d7565b61016f61016a366004610b23565b610546565b6040516100f59190610bbe565b6101a561018a366004610c13565b6001600160a01b031660009081526004602052604090205490565b6040519081526020016100f5565b6101246101c1366004610c35565b610608565b61016f61066c565b6101246101dc366004610b23565b6106fe565b6101a56101ef366004610cc7565b61078c565b6100e1610202366004610b23565b61088f565b600b546101a5565b6000818152600160205260408120546001600160a01b031661023057600080fd5b506000908152600560205260409020546001600160a01b031690565b6000818152600160205260409020546001600160a01b03166102ac5760405162461bcd60e51b81526020600482015260146024820152731d1a19481d1a58dad95d081b9bdd08195e1a5cdd60621b60448201526064015b60405180910390fd5b6000818152600160205260409020546001600160a01b0316331461031e5760405162461bcd60e51b815260206004820152602360248201527f6f6e6c79207469636b657420686f6c6465722063616e2063616c6c20617070726044820152626f766560e81b60648201526084016102a3565b60008181526005602052604080822080546001600160a01b0319166001600160a01b0386169081179091559051839233917f8c5be1e5ebec7d5bd14f71427d1e84f3dd0314c0f7b2291e5b200ac8c7c3b9259190a45050565b6000818152600160205260408120546001600160a01b031661039857600080fd5b6000828152600360205260409020544211806103c2575060008281526006602052604090205460ff165b156103cf57506001919050565b506000919050565b6001600160a01b038316158015906103f757506001600160a01b03821615155b61040057600080fd5b6000818152600160205260409020546001600160a01b0384811691161461042657600080fd5b6000818152600560205260409020546001600160a01b031633148061046157506000818152600160205260409020546001600160a01b031633145b61046a57600080fd5b600081815260056020908152604080832080546001600160a01b0319908116909155600190925290912080549091166001600160a01b0384161790556104b083826108cc565b6001600160a01b03808316600081815260046020908152604080832080546001810182559084529183209091018590555184938716917fddf252ad1be2c89b69c2b068fc378daa952ba7f163c4a11628f55a4df523b3ef91a460405181906000906001600160a01b038616907f8c5be1e5ebec7d5bd14f71427d1e84f3dd0314c0f7b2291e5b200ac8c7c3b925908390a4505050565b6000818152600160205260409020546060906001600160a01b031661056a57600080fd5b6000828152600260205260409020805461058390610d89565b80601f01602080910402602001604051908101604052809291908181526020018280546105af90610d89565b80156105fc5780601f106105d1576101008083540402835291602001916105fc565b820191906000526020600020905b8154815290600101906020018083116105df57829003601f168201915b50505050509050919050565b6000838152600160205260409020546001600160a01b03161580159061064457506000838152600160205260409020546001600160a01b031633145b61064d57600080fd5b6000838152600260205260409020610666908383610a16565b50505050565b60606009805461067b90610d89565b80601f01602080910402602001604051908101604052809291908181526020018280546106a790610d89565b80156106f45780601f106106c9576101008083540402835291602001916106f4565b820191906000526020600020905b8154815290600101906020018083116106d757829003601f168201915b5050505050905090565b6000818152600160205260409020546001600160a01b031661071f57600080fd5b60008181526006602052604090205460ff1615156001141561074057600080fd5b600081815260036020526040902054421061075a57600080fd5b6008546001600160a01b0316331461077157600080fd5b6000908152600660205260409020805460ff19166001179055565b6007546000906001600160a01b031633146107a657600080fd5b6000805490600190806107b98385610dda565b90915550600090506107ce42620d2f00610dda565b600083815260016020908152604080832080546001600160a01b0319166001600160a01b038b16179055600282529091208651929350610812929091870190610a9a565b50600082815260036020908152604080832084905560068252808320805460ff191690556001600160a01b038816808452600483528184208054600181018255908552928420909201859055518492907fddf252ad1be2c89b69c2b068fc378daa952ba7f163c4a11628f55a4df523b3ef908290a4509392505050565b6000818152600160205260408120546001600160a01b03166108b057600080fd5b506000908152600160205260409020546001600160a01b031690565b60005b6001600160a01b0383166000908152600460205260409020546108f490600190610df2565b8111610a11576001600160a01b038316600090815260046020526040902080548391908390811061092757610927610e09565b906000526020600020015414156109ff576001600160a01b0383166000908152600460205260409020805461095e90600190610df2565b8154811061096e5761096e610e09565b906000526020600020015460046000856001600160a01b03166001600160a01b0316815260200190815260200160002082815481106109af576109af610e09565b60009182526020808320909101929092556001600160a01b03851681526004909152604090208054806109e4576109e4610e1f565b60019003818190600052602060002001600090559055505050565b80610a0981610e35565b9150506108cf565b505050565b828054610a2290610d89565b90600052602060002090601f016020900481019282610a445760008555610a8a565b82601f10610a5d5782800160ff19823516178555610a8a565b82800160010185558215610a8a579182015b82811115610a8a578235825591602001919060010190610a6f565b50610a96929150610b0e565b5090565b828054610aa690610d89565b90600052602060002090601f016020900481019282610ac85760008555610a8a565b82601f10610ae157805160ff1916838001178555610a8a565b82800160010185558215610a8a579182015b82811115610a8a578251825591602001919060010190610af3565b5b80821115610a965760008155600101610b0f565b600060208284031215610b3557600080fd5b5035919050565b80356001600160a01b0381168114610b5357600080fd5b919050565b60008060408385031215610b6b57600080fd5b610b7483610b3c565b946020939093013593505050565b600080600060608486031215610b9757600080fd5b610ba084610b3c565b9250610bae60208501610b3c565b9150604084013590509250925092565b600060208083528351808285015260005b81811015610beb57858101830151858201604001528201610bcf565b81811115610bfd576000604083870101525b50601f01601f1916929092016040019392505050565b600060208284031215610c2557600080fd5b610c2e82610b3c565b9392505050565b600080600060408486031215610c4a57600080fd5b83359250602084013567ffffffffffffffff80821115610c6957600080fd5b818601915086601f830112610c7d57600080fd5b813581811115610c8c57600080fd5b876020828501011115610c9e57600080fd5b6020830194508093505050509250925092565b634e487b7160e01b600052604160045260246000fd5b60008060408385031215610cda57600080fd5b610ce383610b3c565b9150602083013567ffffffffffffffff80821115610d0057600080fd5b818501915085601f830112610d1457600080fd5b813581811115610d2657610d26610cb1565b604051601f8201601f19908116603f01168101908382118183101715610d4e57610d4e610cb1565b81604052828152886020848701011115610d6757600080fd5b8260208601602083013760006020848301015280955050505050509250929050565b600181811c90821680610d9d57607f821691505b60208210811415610dbe57634e487b7160e01b600052602260045260246000fd5b50919050565b634e487b7160e01b600052601160045260246000fd5b60008219821115610ded57610ded610dc4565b500190565b600082821015610e0457610e04610dc4565b500390565b634e487b7160e01b600052603260045260246000fd5b634e487b7160e01b600052603160045260246000fd5b6000600019821415610e4957610e49610dc4565b506001019056fea26469706673582212203507e127f69b1637022a22ef9b9d92eac246b6541ec2a4273b19bac13cf5a8de64736f6c634300080a0033",
    "linkReferences": {}
  },
  "methodIdentifiers": {
    "approve(address,uint256)": "095ea7b3",
    "balanceOf(address)": "70a08231",
    "creator()": "02d05d3f",
    "eventName()": "8043c9c0",
    "getApproved(uint256)": "081812fc",
    "holderNameOf(uint256)": "600580d5",
    "holderOf(uint256)": "dbacc237",
    "isExpiredOrUsed(uint256)": "1ac0d8ac",
    "maxNumberOfTickets()": "fdf8a44e",
    "mint(address,string)": "d0def521",
    "setUsed(uint256)": "8543016c",
    "transferFrom(address,address,uint256)": "23b872dd",
    "updateHolderName(uint256,string)": "7b615c4b"
  },
  "id": 18
}